{
  "contractName": "LandContract",
  "abi": [
    {
      "constant": true,
      "inputs": [
        {
          "name": "",
          "type": "address"
        }
      ],
      "name": "balances",
      "outputs": [
        {
          "name": "",
          "type": "uint256"
        }
      ],
      "payable": false,
      "stateMutability": "view",
      "type": "function",
      "signature": "0x27e235e3"
    },
    {
      "constant": true,
      "inputs": [
        {
          "name": "",
          "type": "uint256"
        }
      ],
      "name": "plots",
      "outputs": [
        {
          "name": "id",
          "type": "uint256"
        },
        {
          "name": "owner",
          "type": "address"
        },
        {
          "name": "forSale",
          "type": "bool"
        },
        {
          "name": "price",
          "type": "uint256"
        },
        {
          "name": "name",
          "type": "string"
        },
        {
          "name": "location",
          "type": "string"
        },
        {
          "name": "area",
          "type": "uint256"
        }
      ],
      "payable": false,
      "stateMutability": "view",
      "type": "function",
      "signature": "0x61bf49ee"
    },
    {
      "constant": true,
      "inputs": [],
      "name": "plotsForSaleCount",
      "outputs": [
        {
          "name": "",
          "type": "uint256"
        }
      ],
      "payable": false,
      "stateMutability": "view",
      "type": "function",
      "signature": "0xda1f5280"
    },
    {
      "constant": true,
      "inputs": [],
      "name": "noOfPlots",
      "outputs": [
        {
          "name": "",
          "type": "uint256"
        }
      ],
      "payable": false,
      "stateMutability": "view",
      "type": "function",
      "signature": "0xe1022df4"
    },
    {
      "inputs": [],
      "payable": false,
      "stateMutability": "nonpayable",
      "type": "constructor",
      "signature": "constructor"
    },
    {
      "anonymous": false,
      "inputs": [
        {
          "indexed": false,
          "name": "index",
          "type": "uint256"
        }
      ],
      "name": "PlotOwnerChanged",
      "type": "event",
      "signature": "0xdfae03cf228ff8c45c20fc02b731bb43373364bd428f52e24885f609814ce497"
    },
    {
      "anonymous": false,
      "inputs": [
        {
          "indexed": false,
          "name": "index",
          "type": "uint256"
        },
        {
          "indexed": false,
          "name": "price",
          "type": "uint256"
        }
      ],
      "name": "PlotPriceChanged",
      "type": "event",
      "signature": "0xf43bf07521f1bba334011ee9e0ac9687fb59b66d6f9ed2e43467bf3197e91ef6"
    },
    {
      "anonymous": false,
      "inputs": [
        {
          "indexed": false,
          "name": "index",
          "type": "uint256"
        },
        {
          "indexed": false,
          "name": "price",
          "type": "uint256"
        },
        {
          "indexed": false,
          "name": "forSale",
          "type": "bool"
        }
      ],
      "name": "PlotAvailabilityChanged",
      "type": "event",
      "signature": "0xf8d85ddec75c998a4715c6f8d537607faa56efa42937f3ed1e18eb6ab0ab4af3"
    },
    {
      "constant": false,
      "inputs": [
        {
          "name": "index",
          "type": "uint256"
        },
        {
          "name": "price",
          "type": "uint256"
        }
      ],
      "name": "putPlotUpForSale",
      "outputs": [],
      "payable": false,
      "stateMutability": "nonpayable",
      "type": "function",
      "signature": "0xd81595f1"
    },
    {
      "constant": false,
      "inputs": [
        {
          "name": "index",
          "type": "uint256"
        }
      ],
      "name": "takeOffMarket",
      "outputs": [],
      "payable": false,
      "stateMutability": "nonpayable",
      "type": "function",
      "signature": "0xd1311446"
    },
    {
      "constant": true,
      "inputs": [],
      "name": "getPlots",
      "outputs": [
        {
          "name": "",
          "type": "address[]"
        },
        {
          "name": "",
          "type": "bool[]"
        },
        {
          "name": "",
          "type": "uint256[]"
        }
      ],
      "payable": false,
      "stateMutability": "view",
      "type": "function",
      "signature": "0xf9cf80a9"
    },
    {
      "constant": true,
      "inputs": [],
      "name": "onSaleName",
      "outputs": [
        {
          "name": "",
          "type": "string[]"
        },
        {
          "name": "",
          "type": "uint256"
        }
      ],
      "payable": false,
      "stateMutability": "view",
      "type": "function",
      "signature": "0x0b6b7a1f"
    },
    {
      "constant": true,
      "inputs": [],
      "name": "onSaleLocation",
      "outputs": [
        {
          "name": "",
          "type": "string[]"
        },
        {
          "name": "",
          "type": "uint256"
        }
      ],
      "payable": false,
      "stateMutability": "view",
      "type": "function",
      "signature": "0x3573009c"
    },
    {
      "constant": true,
      "inputs": [],
      "name": "onSalePrice",
      "outputs": [
        {
          "name": "",
          "type": "uint256[]"
        },
        {
          "name": "",
          "type": "uint256"
        }
      ],
      "payable": false,
      "stateMutability": "view",
      "type": "function",
      "signature": "0x193d89af"
    },
    {
      "constant": true,
      "inputs": [],
      "name": "myPlotsName",
      "outputs": [
        {
          "name": "",
          "type": "string[]"
        },
        {
          "name": "",
          "type": "uint256"
        }
      ],
      "payable": false,
      "stateMutability": "view",
      "type": "function",
      "signature": "0x683a5560"
    },
    {
      "constant": true,
      "inputs": [],
      "name": "myPlotsLocation",
      "outputs": [
        {
          "name": "",
          "type": "string[]"
        },
        {
          "name": "",
          "type": "uint256"
        }
      ],
      "payable": false,
      "stateMutability": "view",
      "type": "function",
      "signature": "0x0bf39304"
    },
    {
      "constant": true,
      "inputs": [],
      "name": "myPlotsPrice",
      "outputs": [
        {
          "name": "",
          "type": "uint256[]"
        },
        {
          "name": "",
          "type": "uint256"
        }
      ],
      "payable": false,
      "stateMutability": "view",
      "type": "function",
      "signature": "0xb7bf436c"
    },
    {
      "constant": true,
      "inputs": [],
      "name": "myPlotsSaleCheck",
      "outputs": [
        {
          "name": "",
          "type": "bool[]"
        },
        {
          "name": "",
          "type": "uint256"
        }
      ],
      "payable": false,
      "stateMutability": "view",
      "type": "function",
      "signature": "0x2ada6cf5"
    },
    {
      "constant": true,
      "inputs": [],
      "name": "idOfMyOffSalePlot",
      "outputs": [
        {
          "name": "",
          "type": "uint256[]"
        },
        {
          "name": "",
          "type": "uint256"
        }
      ],
      "payable": false,
      "stateMutability": "view",
      "type": "function",
      "signature": "0x55f10e67"
    },
    {
      "constant": true,
      "inputs": [],
      "name": "priceOfMyOffSalePlot",
      "outputs": [
        {
          "name": "",
          "type": "uint256[]"
        },
        {
          "name": "",
          "type": "uint256"
        }
      ],
      "payable": false,
      "stateMutability": "view",
      "type": "function",
      "signature": "0x212ae557"
    },
    {
      "constant": true,
      "inputs": [],
      "name": "nameOfMyOffSalePlot",
      "outputs": [
        {
          "name": "",
          "type": "string[]"
        },
        {
          "name": "",
          "type": "uint256"
        }
      ],
      "payable": false,
      "stateMutability": "view",
      "type": "function",
      "signature": "0xb46f4dd4"
    },
    {
      "constant": false,
      "inputs": [
        {
          "name": "index",
          "type": "uint256"
        }
      ],
      "name": "buyPlot",
      "outputs": [],
      "payable": true,
      "stateMutability": "payable",
      "type": "function",
      "signature": "0x7b1949d2"
    },
    {
      "constant": true,
      "inputs": [],
      "name": "idOfOnSalePlots",
      "outputs": [
        {
          "name": "",
          "type": "uint256[]"
        },
        {
          "name": "",
          "type": "uint256"
        }
      ],
      "payable": false,
      "stateMutability": "view",
      "type": "function",
      "signature": "0x4d1b5b17"
    },
    {
      "constant": true,
      "inputs": [],
      "name": "onSaleCount",
      "outputs": [
        {
          "name": "",
          "type": "uint256[]"
        }
      ],
      "payable": false,
      "stateMutability": "view",
      "type": "function",
      "signature": "0x356e7863"
    },
    {
      "constant": true,
      "inputs": [],
      "name": "myPlotsCount",
      "outputs": [
        {
          "name": "",
          "type": "uint256[]"
        }
      ],
      "payable": false,
      "stateMutability": "view",
      "type": "function",
      "signature": "0xfdd149b2"
    },
    {
      "constant": true,
      "inputs": [],
      "name": "onSaleId",
      "outputs": [
        {
          "name": "",
          "type": "uint256[]"
        },
        {
          "name": "",
          "type": "uint256"
        }
      ],
      "payable": false,
      "stateMutability": "view",
      "type": "function",
      "signature": "0xaabea9ed"
    }
  ],
  "bytecode": "0x6080604052600c604a553480156200001657600080fd5b50336000806101000a81548173ffffffffffffffffffffffffffffffffffffffff021916908373ffffffffffffffffffffffffffffffffffffffff160217905550600073a43a9c5cbfce8e324af63fc346a05171e8cfe7579050600073026513360c12159c8a3b4c6d9351082e2f5db0a99050600160026000600c811015156200009c57fe5b60060201600001819055508160026000600c81101515620000b957fe5b6006020160010160006101000a81548173ffffffffffffffffffffffffffffffffffffffff021916908373ffffffffffffffffffffffffffffffffffffffff160217905550610fa060026000600c811015156200011257fe5b6006020160020181905550600160026000600c811015156200013057fe5b6006020160010160146101000a81548160ff0219169083151502179055506040805190810160405280600681526020017f506c6f742031000000000000000000000000000000000000000000000000000081525060026000600c811015156200019557fe5b600602016003019080519060200190620001b192919062001495565b506040805190810160405280600881526020017f42616e6573776f7200000000000000000000000000000000000000000000000081525060026000600c81101515620001f957fe5b6006020160040190805190602001906200021592919062001495565b50601460026000600c811015156200022957fe5b60060201600501819055506002806001600c811015156200024657fe5b60060201600001819055508160026001600c811015156200026357fe5b6006020160010160006101000a81548173ffffffffffffffffffffffffffffffffffffffff021916908373ffffffffffffffffffffffffffffffffffffffff160217905550610fa060026001600c81101515620002bc57fe5b6006020160020181905550600060026001600c81101515620002da57fe5b6006020160010160146101000a81548160ff0219169083151502179055506040805190810160405280600681526020017f506c6f742032000000000000000000000000000000000000000000000000000081525060026001600c811015156200033f57fe5b6006020160030190805190602001906200035b92919062001495565b506040805190810160405280600881526020017f4b6f746573776f7200000000000000000000000000000000000000000000000081525060026001600c81101515620003a357fe5b600602016004019080519060200190620003bf92919062001495565b50601960026001600c81101515620003d357fe5b60060201600501819055506003600280600c81101515620003f057fe5b600602016000018190555081600280600c811015156200040c57fe5b6006020160010160006101000a81548173ffffffffffffffffffffffffffffffffffffffff021916908373ffffffffffffffffffffffffffffffffffffffff160217905550610fa0600280600c811015156200046457fe5b60060201600201819055506001600280600c811015156200048157fe5b6006020160010160146101000a81548160ff0219169083151502179055506040805190810160405280600681526020017f506c6f7420330000000000000000000000000000000000000000000000000000815250600280600c81101515620004e557fe5b6006020160030190805190602001906200050192919062001495565b506040805190810160405280600581526020017f5468696d69000000000000000000000000000000000000000000000000000000815250600280600c811015156200054857fe5b6006020160040190805190602001906200056492919062001495565b506016600280600c811015156200057757fe5b6006020160050181905550600460026003600c811015156200059557fe5b60060201600001819055508160026003600c81101515620005b257fe5b6006020160010160006101000a81548173ffffffffffffffffffffffffffffffffffffffff021916908373ffffffffffffffffffffffffffffffffffffffff160217905550610fa060026003600c811015156200060b57fe5b6006020160020181905550600060026003600c811015156200062957fe5b6006020160010160146101000a81548160ff0219169083151502179055506040805190810160405280600681526020017f506c6f742034000000000000000000000000000000000000000000000000000081525060026003600c811015156200068e57fe5b600602016003019080519060200190620006aa92919062001495565b506040805190810160405280600781526020017f4a6f72706174690000000000000000000000000000000000000000000000000081525060026003600c81101515620006f257fe5b6006020160040190805190602001906200070e92919062001495565b50601860026003600c811015156200072257fe5b6006020160050181905550600560026004600c811015156200074057fe5b60060201600001819055508160026004600c811015156200075d57fe5b6006020160010160006101000a81548173ffffffffffffffffffffffffffffffffffffffff021916908373ffffffffffffffffffffffffffffffffffffffff160217905550610fa060026004600c81101515620007b657fe5b6006020160020181905550600060026004600c81101515620007d457fe5b6006020160010160146101000a81548160ff0219169083151502179055506040805190810160405280600681526020017f506c6f742035000000000000000000000000000000000000000000000000000081525060026004600c811015156200083957fe5b6006020160030190805190602001906200085592919062001495565b506040805190810160405280600a81526020017f4c6f6b616e7468616c690000000000000000000000000000000000000000000081525060026004600c811015156200089d57fe5b600602016004019080519060200190620008b992919062001495565b50601460026004600c81101515620008cd57fe5b6006020160050181905550600660026005600c81101515620008eb57fe5b60060201600001819055508160026005600c811015156200090857fe5b6006020160010160006101000a81548173ffffffffffffffffffffffffffffffffffffffff021916908373ffffffffffffffffffffffffffffffffffffffff160217905550610fa060026005600c811015156200096157fe5b6006020160020181905550600160026005600c811015156200097f57fe5b6006020160010160146101000a81548160ff0219169083151502179055506040805190810160405280600681526020017f506c6f742036000000000000000000000000000000000000000000000000000081525060026005600c81101515620009e457fe5b60060201600301908051906020019062000a0092919062001495565b506040805190810160405280600a81526020017f4a6177616c616b68656c0000000000000000000000000000000000000000000081525060026005600c8110151562000a4857fe5b60060201600401908051906020019062000a6492919062001495565b50601460026005600c8110151562000a7857fe5b6006020160050181905550600760026006600c8110151562000a9657fe5b60060201600001819055508060026006600c8110151562000ab357fe5b6006020160010160006101000a81548173ffffffffffffffffffffffffffffffffffffffff021916908373ffffffffffffffffffffffffffffffffffffffff160217905550610fa060026006600c8110151562000b0c57fe5b6006020160020181905550600160026006600c8110151562000b2a57fe5b6006020160010160146101000a81548160ff0219169083151502179055506040805190810160405280600681526020017f506c6f742037000000000000000000000000000000000000000000000000000081525060026006600c8110151562000b8f57fe5b60060201600301908051906020019062000bab92919062001495565b506040805190810160405280600881526020017f50756c63686f776b00000000000000000000000000000000000000000000000081525060026006600c8110151562000bf357fe5b60060201600401908051906020019062000c0f92919062001495565b50601460026006600c8110151562000c2357fe5b6006020160050181905550600860026007600c8110151562000c4157fe5b60060201600001819055508060026007600c8110151562000c5e57fe5b6006020160010160006101000a81548173ffffffffffffffffffffffffffffffffffffffff021916908373ffffffffffffffffffffffffffffffffffffffff160217905550610fa060026007600c8110151562000cb757fe5b6006020160020181905550600160026007600c8110151562000cd557fe5b6006020160010160146101000a81548160ff0219169083151502179055506040805190810160405280600681526020017f506c6f742038000000000000000000000000000000000000000000000000000081525060026007600c8110151562000d3a57fe5b60060201600301908051906020019062000d5692919062001495565b506040805190810160405280600681526020017f42616c616a75000000000000000000000000000000000000000000000000000081525060026007600c8110151562000d9e57fe5b60060201600401908051906020019062000dba92919062001495565b50601460026007600c8110151562000dce57fe5b6006020160050181905550600960026008600c8110151562000dec57fe5b60060201600001819055508060026008600c8110151562000e0957fe5b6006020160010160006101000a81548173ffffffffffffffffffffffffffffffffffffffff021916908373ffffffffffffffffffffffffffffffffffffffff160217905550610fa060026008600c8110151562000e6257fe5b6006020160020181905550600160026008600c8110151562000e8057fe5b6006020160010160146101000a81548160ff0219169083151502179055506040805190810160405280600681526020017f506c6f742039000000000000000000000000000000000000000000000000000081525060026008600c8110151562000ee557fe5b60060201600301908051906020019062000f0192919062001495565b506040805190810160405280600981526020017f5065707369636f6c61000000000000000000000000000000000000000000000081525060026008600c8110151562000f4957fe5b60060201600401908051906020019062000f6592919062001495565b50601460026008600c8110151562000f7957fe5b6006020160050181905550600a60026009600c8110151562000f9757fe5b60060201600001819055508060026009600c8110151562000fb457fe5b6006020160010160006101000a81548173ffffffffffffffffffffffffffffffffffffffff021916908373ffffffffffffffffffffffffffffffffffffffff160217905550610fa060026009600c811015156200100d57fe5b6006020160020181905550600160026009600c811015156200102b57fe5b6006020160010160146101000a81548160ff0219169083151502179055506040805190810160405280600781526020017f506c6f742031300000000000000000000000000000000000000000000000000081525060026009600c811015156200109057fe5b600602016003019080519060200190620010ac92919062001495565b506040805190810160405280600981526020017f536174646f6261746f000000000000000000000000000000000000000000000081525060026009600c81101515620010f457fe5b6006020160040190805190602001906200111092919062001495565b50601460026009600c811015156200112457fe5b6006020160050181905550600b6002600a600c811015156200114257fe5b6006020160000181905550806002600a600c811015156200115f57fe5b6006020160010160006101000a81548173ffffffffffffffffffffffffffffffffffffffff021916908373ffffffffffffffffffffffffffffffffffffffff160217905550610fa06002600a600c81101515620011b857fe5b600602016002018190555060016002600a600c81101515620011d657fe5b6006020160010160146101000a81548160ff0219169083151502179055506040805190810160405280600781526020017f506c6f74203131000000000000000000000000000000000000000000000000008152506002600a600c811015156200123b57fe5b6006020160030190805190602001906200125792919062001495565b506040805190810160405280600681526020017f42616c6b687500000000000000000000000000000000000000000000000000008152506002600a600c811015156200129f57fe5b600602016004019080519060200190620012bb92919062001495565b5060146002600a600c81101515620012cf57fe5b6006020160050181905550600c6002600b600c81101515620012ed57fe5b6006020160000181905550806002600b600c811015156200130a57fe5b6006020160010160006101000a81548173ffffffffffffffffffffffffffffffffffffffff021916908373ffffffffffffffffffffffffffffffffffffffff160217905550610fa06002600b600c811015156200136357fe5b600602016002018190555060016002600b600c811015156200138157fe5b6006020160010160146101000a81548160ff0219169083151502179055506040805190810160405280600781526020017f506c6f74203132000000000000000000000000000000000000000000000000008152506002600b600c81101515620013e657fe5b6006020160030190805190602001906200140292919062001495565b506040805190810160405280600a81526020017f456b616e74616b756e61000000000000000000000000000000000000000000008152506002600b600c811015156200144a57fe5b6006020160040190805190602001906200146692919062001495565b5060146002600b600c811015156200147a57fe5b6006020160050181905550600c604b81905550505062001544565b828054600181600116156101000203166002900490600052602060002090601f016020900481019282601f10620014d857805160ff191683800117855562001509565b8280016001018555821562001509579182015b8281111562001508578251825591602001919060010190620014eb565b5b5090506200151891906200151c565b5090565b6200154191905b808211156200153d57600081600090555060010162001523565b5090565b90565b61229880620015546000396000f3fe608060405260043610610128576000357c0100000000000000000000000000000000000000000000000000000000900463ffffffff1680630b6b7a1f1461012d5780630bf3930414610159578063193d89af14610185578063212ae557146101b157806327e235e3146101dd5780632ada6cf51461021a578063356e7863146102465780633573009c146102715780634d1b5b171461029d57806355f10e67146102c957806361bf49ee146102f5578063683a5560146103385780637b1949d214610364578063aabea9ed14610380578063b46f4dd4146103ac578063b7bf436c146103d8578063d131144614610404578063d81595f11461042d578063da1f528014610456578063e1022df414610481578063f9cf80a9146104ac578063fdd149b2146104d9575b600080fd5b34801561013957600080fd5b50610142610504565b604051610150929190611fc6565b60405180910390f35b34801561016557600080fd5b5061016e610660565b60405161017c929190611fc6565b60405180910390f35b34801561019157600080fd5b5061019a6107fd565b6040516101a8929190612018565b60405180910390f35b3480156101bd57600080fd5b506101c66108bd565b6040516101d4929190612018565b60405180910390f35b3480156101e957600080fd5b5061020460048036036101ff9190810190611cda565b6109df565b6040516102119190612048565b60405180910390f35b34801561022657600080fd5b5061022f6109f7565b60405161023d929190611f96565b60405180910390f35b34801561025257600080fd5b5061025b610b0b565b6040516102689190611ff6565b60405180910390f35b34801561027d57600080fd5b50610286610bc5565b604051610294929190611fc6565b60405180910390f35b3480156102a957600080fd5b506102b2610d21565b6040516102c0929190612018565b60405180910390f35b3480156102d557600080fd5b506102de610e41565b6040516102ec929190612018565b60405180910390f35b34801561030157600080fd5b5061031c60048036036103179190810190611d03565b610f63565b60405161032f9796959493929190612063565b60405180910390f35b34801561034457600080fd5b5061034d611107565b60405161035b929190611fc6565b60405180910390f35b61037e60048036036103799190810190611d03565b6112a4565b005b34801561038c57600080fd5b50610395611440565b6040516103a3929190612018565b60405180910390f35b3480156103b857600080fd5b506103c161155c565b6040516103cf929190611fc6565b60405180910390f35b3480156103e457600080fd5b506103ed61171a565b6040516103fb929190612018565b60405180910390f35b34801561041057600080fd5b5061042b60048036036104269190810190611d03565b61181b565b005b34801561043957600080fd5b50610454600480360361044f9190810190611d2c565b611904565b005b34801561046257600080fd5b5061046b6119fe565b6040516104789190612048565b60405180910390f35b34801561048d57600080fd5b50610496611a04565b6040516104a39190612048565b60405180910390f35b3480156104b857600080fd5b506104c1611a0a565b6040516104d093929190611f4a565b60405180910390f35b3480156104e557600080fd5b506104ee611bb7565b6040516104fb9190611ff6565b60405180910390f35b6060600080600090506060600c60405190808252806020026020018201604052801561054457816020015b606081526020019060019003908161052f5790505b50905060008090505b600c811015610653576000600282600c8110151561056757fe5b6006020190508060010160149054906101000a900460ff161561064557806003018054600181600116156101000203166002900480601f01602080910402602001604051908101604052809291908181526020018280546001816001161561010002031660029004801561061c5780601f106105f15761010080835404028352916020019161061c565b820191906000526020600020905b8154815290600101906020018083116105ff57829003601f168201915b5050505050838581518110151561062f57fe5b9060200190602002018190525083806001019450505b50808060010191505061054d565b5080829350935050509091565b6060600080600090506060600c6040519080825280602002602001820160405280156106a057816020015b606081526020019060019003908161068b5790505b50905060008090505b600c8110156107f0576000600282600c811015156106c357fe5b6006020190503373ffffffffffffffffffffffffffffffffffffffff168160010160009054906101000a900473ffffffffffffffffffffffffffffffffffffffff1673ffffffffffffffffffffffffffffffffffffffff1614156107e257806004018054600181600116156101000203166002900480601f0160208091040260200160405190810160405280929190818152602001828054600181600116156101000203166002900480156107b95780601f1061078e576101008083540402835291602001916107b9565b820191906000526020600020905b81548152906001019060200180831161079c57829003601f168201915b505050505083858151811015156107cc57fe5b9060200190602002018190525083806001019450505b5080806001019150506106a9565b5080829350935050509091565b6060600080600090506060600c6040519080825280602002602001820160405280156108385781602001602082028038833980820191505090505b50905060008090505b600c8110156108b0576000600282600c8110151561085b57fe5b6006020190508060010160149054906101000a900460ff16156108a2578060020154838581518110151561088b57fe5b906020019060200201818152505083806001019450505b508080600101915050610841565b5080829350935050509091565b606060006060600c6040519080825280602002602001820160405280156108f35781602001602082028038833980820191505090505b509050600080905060008090505b600c8110156109d2576000600282600c8110151561091b57fe5b6006020190503373ffffffffffffffffffffffffffffffffffffffff168160010160009054906101000a900473ffffffffffffffffffffffffffffffffffffffff1673ffffffffffffffffffffffffffffffffffffffff161480156109955750600015158160010160149054906101000a900460ff161515145b156109c457806002015484848151811015156109ad57fe5b906020019060200201818152505082806001019350505b508080600101915050610901565b5081819350935050509091565b60016020528060005260406000206000915090505481565b6060600080600090506060600c604051908082528060200260200182016040528015610a325781602001602082028038833980820191505090505b50905060008090505b600c811015610afe576000600282600c81101515610a5557fe5b6006020190503373ffffffffffffffffffffffffffffffffffffffff168160010160009054906101000a900473ffffffffffffffffffffffffffffffffffffffff1673ffffffffffffffffffffffffffffffffffffffff161415610af0578060010160149054906101000a900460ff168385815181101515610ad357fe5b906020019060200201901515908115158152505083806001019450505b508080600101915050610a3b565b5080829350935050509091565b606060008090506060600c604051908082528060200260200182016040528015610b445781602001602082028038833980820191505090505b50905060008090505b600c811015610bbc576000600282600c81101515610b6757fe5b6006020190508060010160149054906101000a900460ff1615610bae5780600001548385815181101515610b9757fe5b906020019060200201818152505083806001019450505b508080600101915050610b4d565b50809250505090565b6060600080600090506060600c604051908082528060200260200182016040528015610c0557816020015b6060815260200190600190039081610bf05790505b50905060008090505b600c811015610d14576000600282600c81101515610c2857fe5b6006020190508060010160149054906101000a900460ff1615610d0657806004018054600181600116156101000203166002900480601f016020809104026020016040519081016040528092919081815260200182805460018160011615610100020316600290048015610cdd5780601f10610cb257610100808354040283529160200191610cdd565b820191906000526020600020905b815481529060010190602001808311610cc057829003601f168201915b50505050508385815181101515610cf057fe5b9060200190602002018190525083806001019450505b508080600101915050610c0e565b5080829350935050509091565b6060600080600090506060600c604051908082528060200260200182016040528015610d5c5781602001602082028038833980820191505090505b50905060008090505b600c811015610e34576000600282600c81101515610d7f57fe5b6006020190503373ffffffffffffffffffffffffffffffffffffffff168160010160009054906101000a900473ffffffffffffffffffffffffffffffffffffffff1673ffffffffffffffffffffffffffffffffffffffff161415610e2657600115158160010160149054906101000a900460ff1615151415610e255780600001548385815181101515610e0e57fe5b906020019060200201818152505083806001019450505b5b508080600101915050610d65565b5080829350935050509091565b606060006060600c604051908082528060200260200182016040528015610e775781602001602082028038833980820191505090505b509050600080905060008090505b600c811015610f56576000600282600c81101515610e9f57fe5b6006020190503373ffffffffffffffffffffffffffffffffffffffff168160010160009054906101000a900473ffffffffffffffffffffffffffffffffffffffff1673ffffffffffffffffffffffffffffffffffffffff16148015610f195750600015158160010160149054906101000a900460ff161515145b15610f485780600001548484815181101515610f3157fe5b906020019060200201818152505082806001019350505b508080600101915050610e85565b5081819350935050509091565b600281600c81101515610f7257fe5b600602016000915090508060000154908060010160009054906101000a900473ffffffffffffffffffffffffffffffffffffffff16908060010160149054906101000a900460ff1690806002015490806003018054600181600116156101000203166002900480601f0160208091040260200160405190810160405280929190818152602001828054600181600116156101000203166002900480156110595780601f1061102e57610100808354040283529160200191611059565b820191906000526020600020905b81548152906001019060200180831161103c57829003601f168201915b505050505090806004018054600181600116156101000203166002900480601f0160208091040260200160405190810160405280929190818152602001828054600181600116156101000203166002900480156110f75780601f106110cc576101008083540402835291602001916110f7565b820191906000526020600020905b8154815290600101906020018083116110da57829003601f168201915b5050505050908060050154905087565b6060600080600090506060600c60405190808252806020026020018201604052801561114757816020015b60608152602001906001900390816111325790505b50905060008090505b600c811015611297576000600282600c8110151561116a57fe5b6006020190503373ffffffffffffffffffffffffffffffffffffffff168160010160009054906101000a900473ffffffffffffffffffffffffffffffffffffffff1673ffffffffffffffffffffffffffffffffffffffff16141561128957806003018054600181600116156101000203166002900480601f0160208091040260200160405190810160405280929190818152602001828054600181600116156101000203166002900480156112605780601f1061123557610100808354040283529160200191611260565b820191906000526020600020905b81548152906001019060200180831161124357829003601f168201915b5050505050838581518110151561127357fe5b9060200190602002018190525083806001019450505b508080600101915050611150565b5080829350935050509091565b6000600282600c811015156112b557fe5b6006020190508060010160009054906101000a900473ffffffffffffffffffffffffffffffffffffffff1673ffffffffffffffffffffffffffffffffffffffff163373ffffffffffffffffffffffffffffffffffffffff161415801561132957508060010160149054906101000a900460ff165b151561133457600080fd5b34600160008360010160009054906101000a900473ffffffffffffffffffffffffffffffffffffffff1673ffffffffffffffffffffffffffffffffffffffff1673ffffffffffffffffffffffffffffffffffffffff16815260200190815260200160002060008282540192505081905550338160010160006101000a81548173ffffffffffffffffffffffffffffffffffffffff021916908373ffffffffffffffffffffffffffffffffffffffff16021790555060008160010160146101000a81548160ff0219169083151502179055507fdfae03cf228ff8c45c20fc02b731bb43373364bd428f52e24885f609814ce497826040516114349190612048565b60405180910390a15050565b6060600080600090506060600c60405190808252806020026020018201604052801561147b5781602001602082028038833980820191505090505b50905060008090505b600c81101561154f576000600282600c8110151561149e57fe5b6006020190508060010160149054906101000a900460ff16801561151257503373ffffffffffffffffffffffffffffffffffffffff168160010160009054906101000a900473ffffffffffffffffffffffffffffffffffffffff1673ffffffffffffffffffffffffffffffffffffffff1614155b15611541578060000154838581518110151561152a57fe5b906020019060200201818152505083806001019450505b508080600101915050611484565b5080829350935050509091565b606060006060600c60405190808252806020026020018201604052801561159757816020015b60608152602001906001900390816115825790505b509050600080905060008090505b600c81101561170d576000600282600c811015156115bf57fe5b6006020190503373ffffffffffffffffffffffffffffffffffffffff168160010160009054906101000a900473ffffffffffffffffffffffffffffffffffffffff1673ffffffffffffffffffffffffffffffffffffffff161480156116395750600015158160010160149054906101000a900460ff161515145b156116ff57806003018054600181600116156101000203166002900480601f0160208091040260200160405190810160405280929190818152602001828054600181600116156101000203166002900480156116d65780601f106116ab576101008083540402835291602001916116d6565b820191906000526020600020905b8154815290600101906020018083116116b957829003601f168201915b505050505084848151811015156116e957fe5b9060200190602002018190525082806001019350505b5080806001019150506115a5565b5081819350935050509091565b6060600080600090506060600c6040519080825280602002602001820160405280156117555781602001602082028038833980820191505090505b50905060008090505b600c81101561180e576000600282600c8110151561177857fe5b6006020190503373ffffffffffffffffffffffffffffffffffffffff168160010160009054906101000a900473ffffffffffffffffffffffffffffffffffffffff1673ffffffffffffffffffffffffffffffffffffffff16141561180057806002015483858151811015156117e957fe5b906020019060200201818152505083806001019450505b50808060010191505061175e565b5080829350935050509091565b6000600282600c8110151561182c57fe5b6006020190508060010160009054906101000a900473ffffffffffffffffffffffffffffffffffffffff1673ffffffffffffffffffffffffffffffffffffffff163373ffffffffffffffffffffffffffffffffffffffff1614151561189057600080fd5b60008160010160146101000a81548160ff0219169083151502179055507ff8d85ddec75c998a4715c6f8d537607faa56efa42937f3ed1e18eb6ab0ab4af382826002015460006040516118e5939291906120e0565b60405180910390a1604b60008154809291906001900391905055505050565b6000600283600c8110151561191557fe5b6006020190508060010160009054906101000a900473ffffffffffffffffffffffffffffffffffffffff1673ffffffffffffffffffffffffffffffffffffffff163373ffffffffffffffffffffffffffffffffffffffff1614801561197a5750600082115b151561198557600080fd5b60018160010160146101000a81548160ff0219169083151502179055508181600201819055507ff8d85ddec75c998a4715c6f8d537607faa56efa42937f3ed1e18eb6ab0ab4af3838360016040516119df939291906120e0565b60405180910390a1604b60008154809291906001019190505550505050565b604b5481565b604a5481565b606080606080600c604051908082528060200260200182016040528015611a405781602001602082028038833980820191505090505b5090506060600c604051908082528060200260200182016040528015611a755781602001602082028038833980820191505090505b5090506060600c604051908082528060200260200182016040528015611aaa5781602001602082028038833980820191505090505b50905060008090505b600c811015611ba5576000600282600c81101515611acd57fe5b6006020190508060010160009054906101000a900473ffffffffffffffffffffffffffffffffffffffff168583815181101515611b0657fe5b9060200190602002019073ffffffffffffffffffffffffffffffffffffffff16908173ffffffffffffffffffffffffffffffffffffffff168152505080600201548383815181101515611b5557fe5b90602001906020020181815250508060010160149054906101000a900460ff168483815181101515611b8357fe5b9060200190602002019015159081151581525050508080600101915050611ab3565b50828282955095509550505050909192565b606060008090506060600c604051908082528060200260200182016040528015611bf05781602001602082028038833980820191505090505b50905060008090505b600c811015611ca9576000600282600c81101515611c1357fe5b6006020190503373ffffffffffffffffffffffffffffffffffffffff168160010160009054906101000a900473ffffffffffffffffffffffffffffffffffffffff1673ffffffffffffffffffffffffffffffffffffffff161415611c9b5780600001548385815181101515611c8457fe5b906020019060200201818152505083806001019450505b508080600101915050611bf9565b50809250505090565b6000611cbe82356121fe565b905092915050565b6000611cd28235612210565b905092915050565b600060208284031215611cec57600080fd5b6000611cfa84828501611cb2565b91505092915050565b600060208284031215611d1557600080fd5b6000611d2384828501611cc6565b91505092915050565b60008060408385031215611d3f57600080fd5b6000611d4d85828601611cc6565b9250506020611d5e85828601611cc6565b9150509250929050565b611d71816121b6565b82525050565b6000611d828261214b565b808452602084019350611d9483612117565b60005b82811015611dc657611daa868351611d68565b611db382612182565b9150602086019550600181019050611d97565b50849250505092915050565b6000611ddd82612156565b808452602084019350611def83612124565b60005b82811015611e2157611e05868351611ef6565b611e0e8261218f565b9150602086019550600181019050611df2565b50849250505092915050565b6000611e3882612161565b80845260208401935083602082028501611e5185612131565b60005b84811015611e8a578383038852611e6c838351611f05565b9250611e778261219c565b9150602088019750600181019050611e54565b508196508694505050505092915050565b6000611ea68261216c565b808452602084019350611eb88361213e565b60005b82811015611eea57611ece868351611f3b565b611ed7826121a9565b9150602086019550600181019050611ebb565b50849250505092915050565b611eff816121c8565b82525050565b6000611f1082612177565b808452611f2481602086016020860161221a565b611f2d8161224d565b602085010191505092915050565b611f44816121f4565b82525050565b60006060820190508181036000830152611f648186611d77565b90508181036020830152611f788185611dd2565b90508181036040830152611f8c8184611e9b565b9050949350505050565b60006040820190508181036000830152611fb08185611dd2565b9050611fbf6020830184611f3b565b9392505050565b60006040820190508181036000830152611fe08185611e2d565b9050611fef6020830184611f3b565b9392505050565b600060208201905081810360008301526120108184611e9b565b905092915050565b600060408201905081810360008301526120328185611e9b565b90506120416020830184611f3b565b9392505050565b600060208201905061205d6000830184611f3b565b92915050565b600060e082019050612078600083018a611f3b565b6120856020830189611d68565b6120926040830188611ef6565b61209f6060830187611f3b565b81810360808301526120b18186611f05565b905081810360a08301526120c58185611f05565b90506120d460c0830184611f3b565b98975050505050505050565b60006060820190506120f56000830186611f3b565b6121026020830185611f3b565b61210f6040830184611ef6565b949350505050565b6000602082019050919050565b6000602082019050919050565b6000602082019050919050565b6000602082019050919050565b600081519050919050565b600081519050919050565b600081519050919050565b600081519050919050565b600081519050919050565b6000602082019050919050565b6000602082019050919050565b6000602082019050919050565b6000602082019050919050565b60006121c1826121d4565b9050919050565b60008115159050919050565b600073ffffffffffffffffffffffffffffffffffffffff82169050919050565b6000819050919050565b6000612209826121d4565b9050919050565b6000819050919050565b60005b8381101561223857808201518184015260208101905061221d565b83811115612247576000848401525b50505050565b6000601f19601f830116905091905056fea265627a7a723058207fd4eed8b3f7aa7cac718deb8f9347726b07d8750ed89e0b4c5949372b3ba2ec6c6578706572696d656e74616cf50037",
  "source": "pragma experimental ABIEncoderV2;\npragma solidity ^0.5.0;\n\n\ncontract LandContract {\n    address owner;\n    mapping (address => uint) public balances;\n\n    struct Plot {\n        uint id;\n        address owner;\n        bool forSale;\n        uint price;\n        string name;\n        string location;\n        uint area;\n    }\n\n    Plot[12] public plots;\n\n    uint public noOfPlots = 12;\n    uint public plotsForSaleCount;\n\n    event PlotOwnerChanged(\n        uint index\n    );\n\n    event PlotPriceChanged(\n        uint index,\n        uint price\n    );\n\n    event PlotAvailabilityChanged(\n        uint index,\n        uint price,\n        bool forSale\n    );\n\n    constructor() public {\n        owner = msg.sender;\n        address x1 = 0xa43A9c5cbFcE8E324AF63fc346A05171e8cfE757;\n        address x2 = 0x026513360c12159C8a3b4c6D9351082E2f5DB0A9;\n        plots[0].id = 1;\n        plots[0].owner= x1;\n        plots[0].price = 4000;\n        plots[0].forSale = true;\n        plots[0].name = 'Plot 1';\n        plots[0].location = 'Baneswor';\n        plots[0].area = 20;\n        plots[1].id = 2;\n        plots[1].owner = x1;\n        plots[1].price = 4000;\n        plots[1].forSale = false;\n        plots[1].name = 'Plot 2';\n        plots[1].location = 'Koteswor';\n        plots[1].area = 25;\n        plots[2].id = 3;\n        plots[2].owner = x1;\n        plots[2].price = 4000;\n        plots[2].forSale = true;\n        plots[2].name = 'Plot 3';\n        plots[2].location = 'Thimi';\n        plots[2].area = 22;\n        plots[3].id = 4;\n        plots[3].owner= x1;\n        plots[3].price = 4000;\n        plots[3].forSale = false;\n        plots[3].name = 'Plot 4';\n        plots[3].location = 'Jorpati';\n        plots[3].area = 24;\n        plots[4].id = 5;\n        plots[4].owner = x1;\n        plots[4].price = 4000;\n        plots[4].forSale = false;\n        plots[4].name = 'Plot 5';\n        plots[4].location = 'Lokanthali';\n        plots[4].area = 20;\n        plots[5].id = 6;\n        plots[5].owner = x1;\n        plots[5].price = 4000;\n        plots[5].forSale = true;\n        plots[5].name = 'Plot 6';\n        plots[5].location = 'Jawalakhel';\n        plots[5].area = 20;\n        plots[6].id = 7;\n        plots[6].owner = x2;\n        plots[6].price = 4000;\n        plots[6].forSale = true;\n        plots[6].name = 'Plot 7';\n        plots[6].location = 'Pulchowk';\n        plots[6].area = 20;\n        plots[7].id = 8;\n        plots[7].owner = x2;\n        plots[7].price = 4000;\n        plots[7].forSale = true;\n        plots[7].name = 'Plot 8';\n        plots[7].location = 'Balaju';\n        plots[7].area = 20;\n        plots[8].id = 9;\n        plots[8].owner = x2;\n        plots[8].price = 4000;\n        plots[8].forSale = true;\n        plots[8].name = 'Plot 9';\n        plots[8].location = 'Pepsicola';\n        plots[8].area = 20;\n        plots[9].id = 10;\n        plots[9].owner = x2;\n        plots[9].price = 4000;\n        plots[9].forSale = true;\n        plots[9].name = 'Plot 10';\n        plots[9].location = 'Satdobato';\n        plots[9].area = 20;\n        plots[10].id = 11;\n        plots[10].owner = x2;\n        plots[10].price = 4000;\n        plots[10].forSale = true;\n        plots[10].name = 'Plot 11';\n        plots[10].location = 'Balkhu';\n        plots[10].area = 20;\n        plots[11].id = 12;\n        plots[11].owner = x2;\n        plots[11].price = 4000;\n        plots[11].forSale = true;\n        plots[11].name = 'Plot 12';\n        plots[11].location = 'Ekantakuna';\n        plots[11].area = 20;\n        plotsForSaleCount = 12;\n\n    }\n\n\n    function putPlotUpForSale(uint index, uint price) public {\n        Plot storage plot = plots[index];\n\n        require(msg.sender == plot.owner && price > 0);\n\n        plot.forSale = true;\n        plot.price = price;\n        emit PlotAvailabilityChanged(index, price, true);\n        plotsForSaleCount ++;\n    }\n\n    function takeOffMarket(uint index) public {\n        Plot storage plot = plots[index];\n\n        require(msg.sender == plot.owner);\n\n        plot.forSale = false;\n        emit PlotAvailabilityChanged(index, plot.price, false);\n        plotsForSaleCount --;\n    }\n\n    function getPlots() public view returns(address[] memory, bool[] memory, uint[] memory) {\n        address[] memory addrs = new address[](12);\n        bool[] memory available = new bool[](12);\n        uint[] memory price = new uint[](12);\n\n        for (uint i = 0; i < 12; i++) {\n            Plot storage plot = plots[i];\n            addrs[i] = plot.owner;\n            price[i] = plot.price;\n            available[i] = plot.forSale;\n        }\n\n        return (addrs, available, price);\n    }\n\n    function onSaleName() public view returns(string[] memory,uint) {\n\n      uint j = 0;\n      string[] memory plotName = new string[](12);\n      for (uint i=0;i<12;i++) {\n        Plot storage plot = plots[i];\n        if (plot.forSale){\n          plotName[j] = plot.name;\n          j++;\n        }\n      }\n      return (plotName,j);\n    }\n\n    function onSaleLocation() public view returns(string[] memory,uint) {\n\n      uint j = 0;\n      string[] memory plotLocation = new string[](12);\n      for (uint i=0;i<12;i++) {\n        Plot storage plot = plots[i];\n        if (plot.forSale){\n          plotLocation[j] = plot.location;\n          j++;\n        }\n      }\n      return (plotLocation,j);\n    }\n\n    function onSalePrice() public view returns(uint[] memory,uint) {\n\n      uint j = 0;\n      uint[] memory plotPrice = new uint[](12);\n      for (uint i=0;i<12;i++) {\n        Plot storage plot = plots[i];\n        if (plot.forSale){\n          plotPrice[j] = plot.price;\n          j++;\n        }\n      }\n      return (plotPrice,j);\n    }\n\n    function myPlotsName() public view returns (string[] memory,uint){\n      uint j = 0;\n      string[] memory plotName = new string[](12);\n      for (uint i=0;i<12;i++) {\n        Plot storage plot = plots[i];\n        if (plot.owner == msg.sender){\n          plotName[j] = plot.name;\n          j++;\n        }\n      }\n      return (plotName,j);\n    }\n\n    function myPlotsLocation() public view returns (string[] memory,uint){\n      uint j = 0;\n      string[] memory plotLocation = new string[](12);\n      for (uint i=0;i<12;i++) {\n        Plot storage plot = plots[i];\n        if (plot.owner == msg.sender){\n          plotLocation[j] = plot.location;\n          j++;\n        }\n      }\n      return (plotLocation,j);\n    }\n\n    function myPlotsPrice() public view returns (uint[] memory,uint){\n      uint j = 0;\n      uint[] memory plotPrice = new uint[](12);\n      for (uint i=0;i<12;i++) {\n        Plot storage plot = plots[i];\n        if (plot.owner == msg.sender){\n          plotPrice[j] = plot.price;\n          j++;\n        }\n      }\n      return (plotPrice,j);\n    }\n\n    function myPlotsSaleCheck() public view returns (bool[] memory,uint){\n      uint j = 0;\n      bool[] memory plotSaleCheck = new bool[](12);\n      for (uint i=0;i<12;i++) {\n        Plot storage plot = plots[i];\n        if (plot.owner == msg.sender){\n          plotSaleCheck[j] = plot.forSale;\n          j++;\n        }\n      }\n      return (plotSaleCheck,j);\n    }\n\n\n    function idOfMyOffSalePlot() public view returns(uint[] memory, uint){\n      uint[] memory ids = new uint[](12);\n      uint j=0;\n      for (uint i=0;i<12;i++){\n        Plot storage plot = plots[i];\n        if (plot.owner == msg.sender && plot.forSale == false) {\n          ids[j] = plot.id;\n          j++;\n        }\n      }\n      return (ids,j);\n    }\n\n    function priceOfMyOffSalePlot() public view returns(uint[] memory, uint){\n      uint[] memory prices = new uint[](12);\n      uint j=0;\n      for (uint i=0;i<12;i++){\n        Plot storage plot = plots[i];\n        if (plot.owner == msg.sender && plot.forSale == false) {\n          prices[j] = plot.price;\n          j++;\n        }\n      }\n      return (prices,j);\n    }\n\n    function nameOfMyOffSalePlot() public view returns(string[] memory, uint){\n      string[] memory names=new string[](12);\n      uint j=0;\n      for (uint i=0;i<12;i++){\n        Plot storage plot = plots[i];\n        if (plot.owner == msg.sender && plot.forSale == false) {\n          names[j] = plot.name;\n          j++;\n        }\n      }\n      return (names,j);\n    }\n\n\n\n    function buyPlot(uint index) public payable {\n        Plot storage plot = plots[index];\n        require(msg.sender != plot.owner && plot.forSale);\n        balances[plot.owner] += msg.value;\n        plot.owner = msg.sender;\n        plot.forSale = false;\n        emit PlotOwnerChanged(index);\n    }\n\n    function idOfOnSalePlots() public view returns(uint[] memory,uint){\n      uint j=0;\n      uint[] memory plotId= new uint[](12);\n      for(uint i=0; i<12; i++){\n        Plot storage plot=plots[i];\n        if(plot.owner==msg.sender){\n          if(plot.forSale==true){\n            plotId[j]=plot.id;\n            j++;\n          }\n\n        }\n      }\n      return (plotId,j);\n    }\n\n    function onSaleCount() public view returns(uint[] memory) {\n\n      uint j = 0;\n      uint[] memory plotID = new uint[](12);\n      for (uint i=0;i<12;i++) {\n        Plot storage plot = plots[i];\n        if (plot.forSale){\n          plotID[j] = plot.id;\n          // plotName[j] = plot.name;\n          j++;\n        }\n      }\n      return (plotID);\n    }\n\n\n    function myPlotsCount() public view returns (uint[] memory){\n      uint j = 0;\n      uint[] memory plotID = new uint[](12);\n      for (uint i=0;i<12;i++) {\n        Plot storage plot = plots[i];\n        if (plot.owner==msg.sender){\n          plotID[j] = plot.id;\n          // plotName[j] = plot.name;\n          j++;\n        }\n      }\n      return (plotID);\n    }\n\n    function onSaleId() public view returns(uint[] memory, uint) {\n\n      uint j = 0;\n      uint[] memory plotId = new uint[](12);\n      for (uint i=0;i<12;i++) {\n        Plot storage plot = plots[i];\n        if (plot.forSale&&plot.owner!=msg.sender){\n          plotId[j] = plot.id;\n          j++;\n        }\n      }\n      return (plotId, j);\n    }\n\n\n}\n",
  "sourcePath": "/Users/animesh/Music/LandContract/contracts/LandContract.sol",
  "compiler": {
    "name": "solc",
    "version": "0.5.0+commit.1d4f565a.Emscripten.clang"
  },
  "schemaVersion": "3.0.1",
  "updatedAt": "2019-07-21T04:27:38.011Z",
  "devdoc": {
    "methods": {}
  },
  "userdoc": {
    "methods": {}
  }
}