{
  "contractName": "LandContract",
  "abi": [
    {
      "constant": true,
      "inputs": [
        {
          "name": "",
          "type": "address"
        }
      ],
      "name": "balances",
      "outputs": [
        {
          "name": "",
          "type": "uint256"
        }
      ],
      "payable": false,
      "stateMutability": "view",
      "type": "function",
      "signature": "0x27e235e3"
    },
    {
      "constant": true,
      "inputs": [
        {
          "name": "",
          "type": "uint256"
        }
      ],
      "name": "plots",
      "outputs": [
        {
          "name": "id",
          "type": "uint256"
        },
        {
          "name": "owner",
          "type": "address"
        },
        {
          "name": "forSale",
          "type": "bool"
        },
        {
          "name": "price",
          "type": "uint256"
        },
        {
          "name": "name",
          "type": "string"
        },
        {
          "name": "location",
          "type": "string"
        }
      ],
      "payable": false,
      "stateMutability": "view",
      "type": "function",
      "signature": "0x61bf49ee"
    },
    {
      "constant": true,
      "inputs": [],
      "name": "plotsForSaleCount",
      "outputs": [
        {
          "name": "",
          "type": "uint256"
        }
      ],
      "payable": false,
      "stateMutability": "view",
      "type": "function",
      "signature": "0xda1f5280"
    },
    {
      "constant": true,
      "inputs": [],
      "name": "noOfPlots",
      "outputs": [
        {
          "name": "",
          "type": "uint256"
        }
      ],
      "payable": false,
      "stateMutability": "view",
      "type": "function",
      "signature": "0xe1022df4"
    },
    {
      "inputs": [],
      "payable": false,
      "stateMutability": "nonpayable",
      "type": "constructor",
      "signature": "constructor"
    },
    {
      "anonymous": false,
      "inputs": [
        {
          "indexed": false,
          "name": "index",
          "type": "uint256"
        }
      ],
      "name": "PlotOwnerChanged",
      "type": "event",
      "signature": "0xdfae03cf228ff8c45c20fc02b731bb43373364bd428f52e24885f609814ce497"
    },
    {
      "anonymous": false,
      "inputs": [
        {
          "indexed": false,
          "name": "index",
          "type": "uint256"
        },
        {
          "indexed": false,
          "name": "price",
          "type": "uint256"
        }
      ],
      "name": "PlotPriceChanged",
      "type": "event",
      "signature": "0xf43bf07521f1bba334011ee9e0ac9687fb59b66d6f9ed2e43467bf3197e91ef6"
    },
    {
      "anonymous": false,
      "inputs": [
        {
          "indexed": false,
          "name": "index",
          "type": "uint256"
        },
        {
          "indexed": false,
          "name": "price",
          "type": "uint256"
        },
        {
          "indexed": false,
          "name": "forSale",
          "type": "bool"
        }
      ],
      "name": "PlotAvailabilityChanged",
      "type": "event",
      "signature": "0xf8d85ddec75c998a4715c6f8d537607faa56efa42937f3ed1e18eb6ab0ab4af3"
    },
    {
      "constant": false,
      "inputs": [
        {
          "name": "index",
          "type": "uint256"
        },
        {
          "name": "price",
          "type": "uint256"
        }
      ],
      "name": "putPlotUpForSale",
      "outputs": [],
      "payable": false,
      "stateMutability": "nonpayable",
      "type": "function",
      "signature": "0xd81595f1"
    },
    {
      "constant": false,
      "inputs": [
        {
          "name": "index",
          "type": "uint256"
        }
      ],
      "name": "takeOffMarket",
      "outputs": [],
      "payable": false,
      "stateMutability": "nonpayable",
      "type": "function",
      "signature": "0xd1311446"
    },
    {
      "constant": true,
      "inputs": [],
      "name": "getPlots",
      "outputs": [
        {
          "name": "",
          "type": "address[]"
        },
        {
          "name": "",
          "type": "bool[]"
        },
        {
          "name": "",
          "type": "uint256[]"
        }
      ],
      "payable": false,
      "stateMutability": "view",
      "type": "function",
      "signature": "0xf9cf80a9"
    },
    {
      "constant": true,
      "inputs": [],
      "name": "onSaleName",
      "outputs": [
        {
          "name": "",
          "type": "string[]"
        },
        {
          "name": "",
          "type": "uint256"
        }
      ],
      "payable": false,
      "stateMutability": "view",
      "type": "function",
      "signature": "0x0b6b7a1f"
    },
    {
      "constant": true,
      "inputs": [],
      "name": "onSaleLocation",
      "outputs": [
        {
          "name": "",
          "type": "string[]"
        },
        {
          "name": "",
          "type": "uint256"
        }
      ],
      "payable": false,
      "stateMutability": "view",
      "type": "function",
      "signature": "0x3573009c"
    },
    {
      "constant": true,
      "inputs": [],
      "name": "onSalePrice",
      "outputs": [
        {
          "name": "",
          "type": "uint256[]"
        },
        {
          "name": "",
          "type": "uint256"
        }
      ],
      "payable": false,
      "stateMutability": "view",
      "type": "function",
      "signature": "0x193d89af"
    },
    {
      "constant": true,
      "inputs": [],
      "name": "myPlotsName",
      "outputs": [
        {
          "name": "",
          "type": "string[]"
        },
        {
          "name": "",
          "type": "uint256"
        }
      ],
      "payable": false,
      "stateMutability": "view",
      "type": "function",
      "signature": "0x683a5560"
    },
    {
      "constant": true,
      "inputs": [],
      "name": "myPlotsLocation",
      "outputs": [
        {
          "name": "",
          "type": "string[]"
        },
        {
          "name": "",
          "type": "uint256"
        }
      ],
      "payable": false,
      "stateMutability": "view",
      "type": "function",
      "signature": "0x0bf39304"
    },
    {
      "constant": true,
      "inputs": [],
      "name": "myPlotsPrice",
      "outputs": [
        {
          "name": "",
          "type": "uint256[]"
        },
        {
          "name": "",
          "type": "uint256"
        }
      ],
      "payable": false,
      "stateMutability": "view",
      "type": "function",
      "signature": "0xb7bf436c"
    },
    {
      "constant": true,
      "inputs": [],
      "name": "myPlotsSaleCheck",
      "outputs": [
        {
          "name": "",
          "type": "bool[]"
        },
        {
          "name": "",
          "type": "uint256"
        }
      ],
      "payable": false,
      "stateMutability": "view",
      "type": "function",
      "signature": "0x2ada6cf5"
    },
    {
      "constant": true,
      "inputs": [],
      "name": "idOfMyOffSalePlot",
      "outputs": [
        {
          "name": "",
          "type": "uint256[]"
        },
        {
          "name": "",
          "type": "uint256"
        }
      ],
      "payable": false,
      "stateMutability": "view",
      "type": "function",
      "signature": "0x55f10e67"
    },
    {
      "constant": true,
      "inputs": [],
      "name": "priceOfMyOffSalePlot",
      "outputs": [
        {
          "name": "",
          "type": "uint256[]"
        },
        {
          "name": "",
          "type": "uint256"
        }
      ],
      "payable": false,
      "stateMutability": "view",
      "type": "function",
      "signature": "0x212ae557"
    },
    {
      "constant": true,
      "inputs": [],
      "name": "nameOfMyOffSalePlot",
      "outputs": [
        {
          "name": "",
          "type": "string[]"
        },
        {
          "name": "",
          "type": "uint256"
        }
      ],
      "payable": false,
      "stateMutability": "view",
      "type": "function",
      "signature": "0xb46f4dd4"
    },
    {
      "constant": false,
      "inputs": [
        {
          "name": "index",
          "type": "uint256"
        }
      ],
      "name": "buyPlot",
      "outputs": [],
      "payable": true,
      "stateMutability": "payable",
      "type": "function",
      "signature": "0x7b1949d2"
    },
    {
      "constant": true,
      "inputs": [],
      "name": "idOfOnSalePlots",
      "outputs": [
        {
          "name": "",
          "type": "uint256[]"
        },
        {
          "name": "",
          "type": "uint256"
        }
      ],
      "payable": false,
      "stateMutability": "view",
      "type": "function",
      "signature": "0x4d1b5b17"
    },
    {
      "constant": true,
      "inputs": [],
      "name": "onSaleCount",
      "outputs": [
        {
          "name": "",
          "type": "uint256[]"
        }
      ],
      "payable": false,
      "stateMutability": "view",
      "type": "function",
      "signature": "0x356e7863"
    },
    {
      "constant": true,
      "inputs": [],
      "name": "myPlotsCount",
      "outputs": [
        {
          "name": "",
          "type": "uint256[]"
        }
      ],
      "payable": false,
      "stateMutability": "view",
      "type": "function",
      "signature": "0xfdd149b2"
    }
  ],
  "bytecode": "0x6080604052600c603e553480156200001657600080fd5b50336000806101000a81548173ffffffffffffffffffffffffffffffffffffffff021916908373ffffffffffffffffffffffffffffffffffffffff160217905550600073a43a9c5cbfce8e324af63fc346a05171e8cfe7579050600073026513360c12159c8a3b4c6d9351082e2f5db0a99050600160026000600c811015156200009c57fe5b60050201600001819055508160026000600c81101515620000b957fe5b6005020160010160006101000a81548173ffffffffffffffffffffffffffffffffffffffff021916908373ffffffffffffffffffffffffffffffffffffffff160217905550610fa060026000600c811015156200011257fe5b6005020160020181905550600160026000600c811015156200013057fe5b6005020160010160146101000a81548160ff0219169083151502179055506040805190810160405280600681526020017f506c6f742031000000000000000000000000000000000000000000000000000081525060026000600c811015156200019557fe5b600502016003019080519060200190620001b19291906200132e565b506040805190810160405280600881526020017f42616e6573776f7200000000000000000000000000000000000000000000000081525060026000600c81101515620001f957fe5b600502016004019080519060200190620002159291906200132e565b506002806001600c811015156200022857fe5b60050201600001819055508160026001600c811015156200024557fe5b6005020160010160006101000a81548173ffffffffffffffffffffffffffffffffffffffff021916908373ffffffffffffffffffffffffffffffffffffffff160217905550610fa060026001600c811015156200029e57fe5b6005020160020181905550600060026001600c81101515620002bc57fe5b6005020160010160146101000a81548160ff0219169083151502179055506040805190810160405280600681526020017f506c6f742032000000000000000000000000000000000000000000000000000081525060026001600c811015156200032157fe5b6005020160030190805190602001906200033d9291906200132e565b506040805190810160405280600881526020017f4b6f746573776f7200000000000000000000000000000000000000000000000081525060026001600c811015156200038557fe5b600502016004019080519060200190620003a19291906200132e565b506003600280600c81101515620003b457fe5b600502016000018190555081600280600c81101515620003d057fe5b6005020160010160006101000a81548173ffffffffffffffffffffffffffffffffffffffff021916908373ffffffffffffffffffffffffffffffffffffffff160217905550610fa0600280600c811015156200042857fe5b60050201600201819055506001600280600c811015156200044557fe5b6005020160010160146101000a81548160ff0219169083151502179055506040805190810160405280600681526020017f506c6f7420330000000000000000000000000000000000000000000000000000815250600280600c81101515620004a957fe5b600502016003019080519060200190620004c59291906200132e565b506040805190810160405280600581526020017f5468696d69000000000000000000000000000000000000000000000000000000815250600280600c811015156200050c57fe5b600502016004019080519060200190620005289291906200132e565b50600460026003600c811015156200053c57fe5b60050201600001819055508160026003600c811015156200055957fe5b6005020160010160006101000a81548173ffffffffffffffffffffffffffffffffffffffff021916908373ffffffffffffffffffffffffffffffffffffffff160217905550610fa060026003600c81101515620005b257fe5b6005020160020181905550600060026003600c81101515620005d057fe5b6005020160010160146101000a81548160ff0219169083151502179055506040805190810160405280600681526020017f506c6f742034000000000000000000000000000000000000000000000000000081525060026003600c811015156200063557fe5b600502016003019080519060200190620006519291906200132e565b506040805190810160405280600781526020017f4a6f72706174690000000000000000000000000000000000000000000000000081525060026003600c811015156200069957fe5b600502016004019080519060200190620006b59291906200132e565b50600560026004600c81101515620006c957fe5b60050201600001819055508160026004600c81101515620006e657fe5b6005020160010160006101000a81548173ffffffffffffffffffffffffffffffffffffffff021916908373ffffffffffffffffffffffffffffffffffffffff160217905550610fa060026004600c811015156200073f57fe5b6005020160020181905550600060026004600c811015156200075d57fe5b6005020160010160146101000a81548160ff0219169083151502179055506040805190810160405280600681526020017f506c6f742035000000000000000000000000000000000000000000000000000081525060026004600c81101515620007c257fe5b600502016003019080519060200190620007de9291906200132e565b506040805190810160405280600a81526020017f4c6f6b616e7468616c690000000000000000000000000000000000000000000081525060026004600c811015156200082657fe5b600502016004019080519060200190620008429291906200132e565b50600660026005600c811015156200085657fe5b60050201600001819055508160026005600c811015156200087357fe5b6005020160010160006101000a81548173ffffffffffffffffffffffffffffffffffffffff021916908373ffffffffffffffffffffffffffffffffffffffff160217905550610fa060026005600c81101515620008cc57fe5b6005020160020181905550600160026005600c81101515620008ea57fe5b6005020160010160146101000a81548160ff0219169083151502179055506040805190810160405280600681526020017f506c6f742036000000000000000000000000000000000000000000000000000081525060026005600c811015156200094f57fe5b6005020160030190805190602001906200096b9291906200132e565b506040805190810160405280600a81526020017f4a6177616c616b68656c0000000000000000000000000000000000000000000081525060026005600c81101515620009b357fe5b600502016004019080519060200190620009cf9291906200132e565b50600760026006600c81101515620009e357fe5b60050201600001819055508060026006600c8110151562000a0057fe5b6005020160010160006101000a81548173ffffffffffffffffffffffffffffffffffffffff021916908373ffffffffffffffffffffffffffffffffffffffff160217905550610fa060026006600c8110151562000a5957fe5b6005020160020181905550600160026006600c8110151562000a7757fe5b6005020160010160146101000a81548160ff0219169083151502179055506040805190810160405280600681526020017f506c6f742037000000000000000000000000000000000000000000000000000081525060026006600c8110151562000adc57fe5b60050201600301908051906020019062000af89291906200132e565b506040805190810160405280600881526020017f50756c63686f776b00000000000000000000000000000000000000000000000081525060026006600c8110151562000b4057fe5b60050201600401908051906020019062000b5c9291906200132e565b50600860026007600c8110151562000b7057fe5b60050201600001819055508060026007600c8110151562000b8d57fe5b6005020160010160006101000a81548173ffffffffffffffffffffffffffffffffffffffff021916908373ffffffffffffffffffffffffffffffffffffffff160217905550610fa060026007600c8110151562000be657fe5b6005020160020181905550600160026007600c8110151562000c0457fe5b6005020160010160146101000a81548160ff0219169083151502179055506040805190810160405280600681526020017f506c6f742038000000000000000000000000000000000000000000000000000081525060026007600c8110151562000c6957fe5b60050201600301908051906020019062000c859291906200132e565b506040805190810160405280600681526020017f42616c616a75000000000000000000000000000000000000000000000000000081525060026007600c8110151562000ccd57fe5b60050201600401908051906020019062000ce99291906200132e565b50600960026008600c8110151562000cfd57fe5b60050201600001819055508060026008600c8110151562000d1a57fe5b6005020160010160006101000a81548173ffffffffffffffffffffffffffffffffffffffff021916908373ffffffffffffffffffffffffffffffffffffffff160217905550610fa060026008600c8110151562000d7357fe5b6005020160020181905550600160026008600c8110151562000d9157fe5b6005020160010160146101000a81548160ff0219169083151502179055506040805190810160405280600681526020017f506c6f742039000000000000000000000000000000000000000000000000000081525060026008600c8110151562000df657fe5b60050201600301908051906020019062000e129291906200132e565b506040805190810160405280600981526020017f5065707369636f6c61000000000000000000000000000000000000000000000081525060026008600c8110151562000e5a57fe5b60050201600401908051906020019062000e769291906200132e565b50600a60026009600c8110151562000e8a57fe5b60050201600001819055508060026009600c8110151562000ea757fe5b6005020160010160006101000a81548173ffffffffffffffffffffffffffffffffffffffff021916908373ffffffffffffffffffffffffffffffffffffffff160217905550610fa060026009600c8110151562000f0057fe5b6005020160020181905550600160026009600c8110151562000f1e57fe5b6005020160010160146101000a81548160ff0219169083151502179055506040805190810160405280600781526020017f506c6f742031300000000000000000000000000000000000000000000000000081525060026009600c8110151562000f8357fe5b60050201600301908051906020019062000f9f9291906200132e565b506040805190810160405280600981526020017f536174646f6261746f000000000000000000000000000000000000000000000081525060026009600c8110151562000fe757fe5b600502016004019080519060200190620010039291906200132e565b50600b6002600a600c811015156200101757fe5b6005020160000181905550806002600a600c811015156200103457fe5b6005020160010160006101000a81548173ffffffffffffffffffffffffffffffffffffffff021916908373ffffffffffffffffffffffffffffffffffffffff160217905550610fa06002600a600c811015156200108d57fe5b600502016002018190555060016002600a600c81101515620010ab57fe5b6005020160010160146101000a81548160ff0219169083151502179055506040805190810160405280600781526020017f506c6f74203131000000000000000000000000000000000000000000000000008152506002600a600c811015156200111057fe5b6005020160030190805190602001906200112c9291906200132e565b506040805190810160405280600681526020017f42616c6b687500000000000000000000000000000000000000000000000000008152506002600a600c811015156200117457fe5b600502016004019080519060200190620011909291906200132e565b50600c6002600b600c81101515620011a457fe5b6005020160000181905550806002600b600c81101515620011c157fe5b6005020160010160006101000a81548173ffffffffffffffffffffffffffffffffffffffff021916908373ffffffffffffffffffffffffffffffffffffffff160217905550610fa06002600b600c811015156200121a57fe5b600502016002018190555060016002600b600c811015156200123857fe5b6005020160010160146101000a81548160ff0219169083151502179055506040805190810160405280600781526020017f506c6f74203132000000000000000000000000000000000000000000000000008152506002600b600c811015156200129d57fe5b600502016003019080519060200190620012b99291906200132e565b506040805190810160405280600a81526020017f456b616e74616b756e61000000000000000000000000000000000000000000008152506002600b600c811015156200130157fe5b6005020160040190805190602001906200131d9291906200132e565b50600c603f819055505050620013dd565b828054600181600116156101000203166002900490600052602060002090601f016020900481019282601f106200137157805160ff1916838001178555620013a2565b82800160010185558215620013a2579182015b82811115620013a157825182559160200191906001019062001384565b5b509050620013b19190620013b5565b5090565b620013da91905b80821115620013d6576000816000905550600101620013bc565b5090565b90565b6121a880620013ed6000396000f3fe60806040526004361061011d576000357c0100000000000000000000000000000000000000000000000000000000900463ffffffff1680630b6b7a1f146101225780630bf393041461014e578063193d89af1461017a578063212ae557146101a657806327e235e3146101d25780632ada6cf51461020f578063356e78631461023b5780633573009c146102665780634d1b5b171461029257806355f10e67146102be57806361bf49ee146102ea578063683a55601461032c5780637b1949d214610358578063b46f4dd414610374578063b7bf436c146103a0578063d1311446146103cc578063d81595f1146103f5578063da1f52801461041e578063e1022df414610449578063f9cf80a914610474578063fdd149b2146104a1575b600080fd5b34801561012e57600080fd5b506101376104cc565b604051610145929190611ee4565b60405180910390f35b34801561015a57600080fd5b50610163610628565b604051610171929190611ee4565b60405180910390f35b34801561018657600080fd5b5061018f6107c5565b60405161019d929190611f36565b60405180910390f35b3480156101b257600080fd5b506101bb610885565b6040516101c9929190611f36565b60405180910390f35b3480156101de57600080fd5b506101f960048036036101f49190810190611bf8565b6109a7565b6040516102069190611f66565b60405180910390f35b34801561021b57600080fd5b506102246109bf565b604051610232929190611eb4565b60405180910390f35b34801561024757600080fd5b50610250610ad3565b60405161025d9190611f14565b60405180910390f35b34801561027257600080fd5b5061027b610b8d565b604051610289929190611ee4565b60405180910390f35b34801561029e57600080fd5b506102a7610ce9565b6040516102b5929190611f36565b60405180910390f35b3480156102ca57600080fd5b506102d3610e09565b6040516102e1929190611f36565b60405180910390f35b3480156102f657600080fd5b50610311600480360361030c9190810190611c21565b610f2b565b60405161032396959493929190611f81565b60405180910390f35b34801561033857600080fd5b506103416110c9565b60405161034f929190611ee4565b60405180910390f35b610372600480360361036d9190810190611c21565b611266565b005b34801561038057600080fd5b5061038961147a565b604051610397929190611ee4565b60405180910390f35b3480156103ac57600080fd5b506103b5611638565b6040516103c3929190611f36565b60405180910390f35b3480156103d857600080fd5b506103f360048036036103ee9190810190611c21565b611739565b005b34801561040157600080fd5b5061041c60048036036104179190810190611c4a565b611822565b005b34801561042a57600080fd5b5061043361191c565b6040516104409190611f66565b60405180910390f35b34801561045557600080fd5b5061045e611922565b60405161046b9190611f66565b60405180910390f35b34801561048057600080fd5b50610489611928565b60405161049893929190611e68565b60405180910390f35b3480156104ad57600080fd5b506104b6611ad5565b6040516104c39190611f14565b60405180910390f35b6060600080600090506060600c60405190808252806020026020018201604052801561050c57816020015b60608152602001906001900390816104f75790505b50905060008090505b600c81101561061b576000600282600c8110151561052f57fe5b6005020190508060010160149054906101000a900460ff161561060d57806003018054600181600116156101000203166002900480601f0160208091040260200160405190810160405280929190818152602001828054600181600116156101000203166002900480156105e45780601f106105b9576101008083540402835291602001916105e4565b820191906000526020600020905b8154815290600101906020018083116105c757829003601f168201915b505050505083858151811015156105f757fe5b9060200190602002018190525083806001019450505b508080600101915050610515565b5080829350935050509091565b6060600080600090506060600c60405190808252806020026020018201604052801561066857816020015b60608152602001906001900390816106535790505b50905060008090505b600c8110156107b8576000600282600c8110151561068b57fe5b6005020190503373ffffffffffffffffffffffffffffffffffffffff168160010160009054906101000a900473ffffffffffffffffffffffffffffffffffffffff1673ffffffffffffffffffffffffffffffffffffffff1614156107aa57806004018054600181600116156101000203166002900480601f0160208091040260200160405190810160405280929190818152602001828054600181600116156101000203166002900480156107815780601f1061075657610100808354040283529160200191610781565b820191906000526020600020905b81548152906001019060200180831161076457829003601f168201915b5050505050838581518110151561079457fe5b9060200190602002018190525083806001019450505b508080600101915050610671565b5080829350935050509091565b6060600080600090506060600c6040519080825280602002602001820160405280156108005781602001602082028038833980820191505090505b50905060008090505b600c811015610878576000600282600c8110151561082357fe5b6005020190508060010160149054906101000a900460ff161561086a578060020154838581518110151561085357fe5b906020019060200201818152505083806001019450505b508080600101915050610809565b5080829350935050509091565b606060006060600c6040519080825280602002602001820160405280156108bb5781602001602082028038833980820191505090505b509050600080905060008090505b600c81101561099a576000600282600c811015156108e357fe5b6005020190503373ffffffffffffffffffffffffffffffffffffffff168160010160009054906101000a900473ffffffffffffffffffffffffffffffffffffffff1673ffffffffffffffffffffffffffffffffffffffff1614801561095d5750600015158160010160149054906101000a900460ff161515145b1561098c578060020154848481518110151561097557fe5b906020019060200201818152505082806001019350505b5080806001019150506108c9565b5081819350935050509091565b60016020528060005260406000206000915090505481565b6060600080600090506060600c6040519080825280602002602001820160405280156109fa5781602001602082028038833980820191505090505b50905060008090505b600c811015610ac6576000600282600c81101515610a1d57fe5b6005020190503373ffffffffffffffffffffffffffffffffffffffff168160010160009054906101000a900473ffffffffffffffffffffffffffffffffffffffff1673ffffffffffffffffffffffffffffffffffffffff161415610ab8578060010160149054906101000a900460ff168385815181101515610a9b57fe5b906020019060200201901515908115158152505083806001019450505b508080600101915050610a03565b5080829350935050509091565b606060008090506060600c604051908082528060200260200182016040528015610b0c5781602001602082028038833980820191505090505b50905060008090505b600c811015610b84576000600282600c81101515610b2f57fe5b6005020190508060010160149054906101000a900460ff1615610b765780600001548385815181101515610b5f57fe5b906020019060200201818152505083806001019450505b508080600101915050610b15565b50809250505090565b6060600080600090506060600c604051908082528060200260200182016040528015610bcd57816020015b6060815260200190600190039081610bb85790505b50905060008090505b600c811015610cdc576000600282600c81101515610bf057fe5b6005020190508060010160149054906101000a900460ff1615610cce57806004018054600181600116156101000203166002900480601f016020809104026020016040519081016040528092919081815260200182805460018160011615610100020316600290048015610ca55780601f10610c7a57610100808354040283529160200191610ca5565b820191906000526020600020905b815481529060010190602001808311610c8857829003601f168201915b50505050508385815181101515610cb857fe5b9060200190602002018190525083806001019450505b508080600101915050610bd6565b5080829350935050509091565b6060600080600090506060600c604051908082528060200260200182016040528015610d245781602001602082028038833980820191505090505b50905060008090505b600c811015610dfc576000600282600c81101515610d4757fe5b6005020190503373ffffffffffffffffffffffffffffffffffffffff168160010160009054906101000a900473ffffffffffffffffffffffffffffffffffffffff1673ffffffffffffffffffffffffffffffffffffffff161415610dee57600115158160010160149054906101000a900460ff1615151415610ded5780600001548385815181101515610dd657fe5b906020019060200201818152505083806001019450505b5b508080600101915050610d2d565b5080829350935050509091565b606060006060600c604051908082528060200260200182016040528015610e3f5781602001602082028038833980820191505090505b509050600080905060008090505b600c811015610f1e576000600282600c81101515610e6757fe5b6005020190503373ffffffffffffffffffffffffffffffffffffffff168160010160009054906101000a900473ffffffffffffffffffffffffffffffffffffffff1673ffffffffffffffffffffffffffffffffffffffff16148015610ee15750600015158160010160149054906101000a900460ff161515145b15610f105780600001548484815181101515610ef957fe5b906020019060200201818152505082806001019350505b508080600101915050610e4d565b5081819350935050509091565b600281600c81101515610f3a57fe5b600502016000915090508060000154908060010160009054906101000a900473ffffffffffffffffffffffffffffffffffffffff16908060010160149054906101000a900460ff1690806002015490806003018054600181600116156101000203166002900480601f0160208091040260200160405190810160405280929190818152602001828054600181600116156101000203166002900480156110215780601f10610ff657610100808354040283529160200191611021565b820191906000526020600020905b81548152906001019060200180831161100457829003601f168201915b505050505090806004018054600181600116156101000203166002900480601f0160208091040260200160405190810160405280929190818152602001828054600181600116156101000203166002900480156110bf5780601f10611094576101008083540402835291602001916110bf565b820191906000526020600020905b8154815290600101906020018083116110a257829003601f168201915b5050505050905086565b6060600080600090506060600c60405190808252806020026020018201604052801561110957816020015b60608152602001906001900390816110f45790505b50905060008090505b600c811015611259576000600282600c8110151561112c57fe5b6005020190503373ffffffffffffffffffffffffffffffffffffffff168160010160009054906101000a900473ffffffffffffffffffffffffffffffffffffffff1673ffffffffffffffffffffffffffffffffffffffff16141561124b57806003018054600181600116156101000203166002900480601f0160208091040260200160405190810160405280929190818152602001828054600181600116156101000203166002900480156112225780601f106111f757610100808354040283529160200191611222565b820191906000526020600020905b81548152906001019060200180831161120557829003601f168201915b5050505050838581518110151561123557fe5b9060200190602002018190525083806001019450505b508080600101915050611112565b5080829350935050509091565b6000600282600c8110151561127757fe5b6005020190508060010160009054906101000a900473ffffffffffffffffffffffffffffffffffffffff1673ffffffffffffffffffffffffffffffffffffffff163373ffffffffffffffffffffffffffffffffffffffff16141580156112eb57508060010160149054906101000a900460ff165b80156112fb575080600201543410155b151561130657600080fd5b8060020154600160008360010160009054906101000a900473ffffffffffffffffffffffffffffffffffffffff1673ffffffffffffffffffffffffffffffffffffffff1673ffffffffffffffffffffffffffffffffffffffff168152602001908152602001600020600082825401925050819055508060020154600160003373ffffffffffffffffffffffffffffffffffffffff1673ffffffffffffffffffffffffffffffffffffffff16815260200190815260200160002060008282540392505081905550338160010160006101000a81548173ffffffffffffffffffffffffffffffffffffffff021916908373ffffffffffffffffffffffffffffffffffffffff16021790555060008160010160146101000a81548160ff021916908315150217905550603f60008154809291906001900391905055507fdfae03cf228ff8c45c20fc02b731bb43373364bd428f52e24885f609814ce4978260405161146e9190611f66565b60405180910390a15050565b606060006060600c6040519080825280602002602001820160405280156114b557816020015b60608152602001906001900390816114a05790505b509050600080905060008090505b600c81101561162b576000600282600c811015156114dd57fe5b6005020190503373ffffffffffffffffffffffffffffffffffffffff168160010160009054906101000a900473ffffffffffffffffffffffffffffffffffffffff1673ffffffffffffffffffffffffffffffffffffffff161480156115575750600015158160010160149054906101000a900460ff161515145b1561161d57806003018054600181600116156101000203166002900480601f0160208091040260200160405190810160405280929190818152602001828054600181600116156101000203166002900480156115f45780601f106115c9576101008083540402835291602001916115f4565b820191906000526020600020905b8154815290600101906020018083116115d757829003601f168201915b5050505050848481518110151561160757fe5b9060200190602002018190525082806001019350505b5080806001019150506114c3565b5081819350935050509091565b6060600080600090506060600c6040519080825280602002602001820160405280156116735781602001602082028038833980820191505090505b50905060008090505b600c81101561172c576000600282600c8110151561169657fe5b6005020190503373ffffffffffffffffffffffffffffffffffffffff168160010160009054906101000a900473ffffffffffffffffffffffffffffffffffffffff1673ffffffffffffffffffffffffffffffffffffffff16141561171e578060020154838581518110151561170757fe5b906020019060200201818152505083806001019450505b50808060010191505061167c565b5080829350935050509091565b6000600282600c8110151561174a57fe5b6005020190508060010160009054906101000a900473ffffffffffffffffffffffffffffffffffffffff1673ffffffffffffffffffffffffffffffffffffffff163373ffffffffffffffffffffffffffffffffffffffff161415156117ae57600080fd5b60008160010160146101000a81548160ff0219169083151502179055507ff8d85ddec75c998a4715c6f8d537607faa56efa42937f3ed1e18eb6ab0ab4af3828260020154600060405161180393929190611ff0565b60405180910390a1603f60008154809291906001900391905055505050565b6000600283600c8110151561183357fe5b6005020190508060010160009054906101000a900473ffffffffffffffffffffffffffffffffffffffff1673ffffffffffffffffffffffffffffffffffffffff163373ffffffffffffffffffffffffffffffffffffffff161480156118985750600082115b15156118a357600080fd5b60018160010160146101000a81548160ff0219169083151502179055508181600201819055507ff8d85ddec75c998a4715c6f8d537607faa56efa42937f3ed1e18eb6ab0ab4af3838360016040516118fd93929190611ff0565b60405180910390a1603f60008154809291906001019190505550505050565b603f5481565b603e5481565b606080606080600c60405190808252806020026020018201604052801561195e5781602001602082028038833980820191505090505b5090506060600c6040519080825280602002602001820160405280156119935781602001602082028038833980820191505090505b5090506060600c6040519080825280602002602001820160405280156119c85781602001602082028038833980820191505090505b50905060008090505b600c811015611ac3576000600282600c811015156119eb57fe5b6005020190508060010160009054906101000a900473ffffffffffffffffffffffffffffffffffffffff168583815181101515611a2457fe5b9060200190602002019073ffffffffffffffffffffffffffffffffffffffff16908173ffffffffffffffffffffffffffffffffffffffff168152505080600201548383815181101515611a7357fe5b90602001906020020181815250508060010160149054906101000a900460ff168483815181101515611aa157fe5b90602001906020020190151590811515815250505080806001019150506119d1565b50828282955095509550505050909192565b606060008090506060600c604051908082528060200260200182016040528015611b0e5781602001602082028038833980820191505090505b50905060008090505b600c811015611bc7576000600282600c81101515611b3157fe5b6005020190503373ffffffffffffffffffffffffffffffffffffffff168160010160009054906101000a900473ffffffffffffffffffffffffffffffffffffffff1673ffffffffffffffffffffffffffffffffffffffff161415611bb95780600001548385815181101515611ba257fe5b906020019060200201818152505083806001019450505b508080600101915050611b17565b50809250505090565b6000611bdc823561210e565b905092915050565b6000611bf08235612120565b905092915050565b600060208284031215611c0a57600080fd5b6000611c1884828501611bd0565b91505092915050565b600060208284031215611c3357600080fd5b6000611c4184828501611be4565b91505092915050565b60008060408385031215611c5d57600080fd5b6000611c6b85828601611be4565b9250506020611c7c85828601611be4565b9150509250929050565b611c8f816120c6565b82525050565b6000611ca08261205b565b808452602084019350611cb283612027565b60005b82811015611ce457611cc8868351611c86565b611cd182612092565b9150602086019550600181019050611cb5565b50849250505092915050565b6000611cfb82612066565b808452602084019350611d0d83612034565b60005b82811015611d3f57611d23868351611e14565b611d2c8261209f565b9150602086019550600181019050611d10565b50849250505092915050565b6000611d5682612071565b80845260208401935083602082028501611d6f85612041565b60005b84811015611da8578383038852611d8a838351611e23565b9250611d95826120ac565b9150602088019750600181019050611d72565b508196508694505050505092915050565b6000611dc48261207c565b808452602084019350611dd68361204e565b60005b82811015611e0857611dec868351611e59565b611df5826120b9565b9150602086019550600181019050611dd9565b50849250505092915050565b611e1d816120d8565b82525050565b6000611e2e82612087565b808452611e4281602086016020860161212a565b611e4b8161215d565b602085010191505092915050565b611e6281612104565b82525050565b60006060820190508181036000830152611e828186611c95565b90508181036020830152611e968185611cf0565b90508181036040830152611eaa8184611db9565b9050949350505050565b60006040820190508181036000830152611ece8185611cf0565b9050611edd6020830184611e59565b9392505050565b60006040820190508181036000830152611efe8185611d4b565b9050611f0d6020830184611e59565b9392505050565b60006020820190508181036000830152611f2e8184611db9565b905092915050565b60006040820190508181036000830152611f508185611db9565b9050611f5f6020830184611e59565b9392505050565b6000602082019050611f7b6000830184611e59565b92915050565b600060c082019050611f966000830189611e59565b611fa36020830188611c86565b611fb06040830187611e14565b611fbd6060830186611e59565b8181036080830152611fcf8185611e23565b905081810360a0830152611fe38184611e23565b9050979650505050505050565b60006060820190506120056000830186611e59565b6120126020830185611e59565b61201f6040830184611e14565b949350505050565b6000602082019050919050565b6000602082019050919050565b6000602082019050919050565b6000602082019050919050565b600081519050919050565b600081519050919050565b600081519050919050565b600081519050919050565b600081519050919050565b6000602082019050919050565b6000602082019050919050565b6000602082019050919050565b6000602082019050919050565b60006120d1826120e4565b9050919050565b60008115159050919050565b600073ffffffffffffffffffffffffffffffffffffffff82169050919050565b6000819050919050565b6000612119826120e4565b9050919050565b6000819050919050565b60005b8381101561214857808201518184015260208101905061212d565b83811115612157576000848401525b50505050565b6000601f19601f830116905091905056fea265627a7a723058205ff393df9ec46022bf43ffb6767459bfb25768a7042989bda7aaf36184b02c746c6578706572696d656e74616cf50037",
  "source": "pragma experimental ABIEncoderV2;\npragma solidity ^0.5.0;\n\n\ncontract LandContract {\n    address owner;\n    mapping (address => uint) public balances;\n\n    struct Plot {\n        uint id;\n        address owner;\n        bool forSale;\n        uint price;\n        string name;\n        string location;\n    }\n\n    Plot[12] public plots;\n\n    uint public noOfPlots = 12;\n    uint public plotsForSaleCount;\n\n    event PlotOwnerChanged(\n        uint index\n    );\n\n    event PlotPriceChanged(\n        uint index,\n        uint price\n    );\n\n    event PlotAvailabilityChanged(\n        uint index,\n        uint price,\n        bool forSale\n    );\n\n    constructor() public {\n        owner = msg.sender;\n        address x1 = 0xa43A9c5cbFcE8E324AF63fc346A05171e8cfE757;\n        address x2 = 0x026513360c12159C8a3b4c6D9351082E2f5DB0A9;\n        plots[0].id = 1;\n        plots[0].owner= x1;\n        plots[0].price = 4000;\n        plots[0].forSale = true;\n        plots[0].name = 'Plot 1';\n        plots[0].location = 'Baneswor';\n        plots[1].id = 2;\n        plots[1].owner = x1;\n        plots[1].price = 4000;\n        plots[1].forSale = false;\n        plots[1].name = 'Plot 2';\n        plots[1].location = 'Koteswor';\n        plots[2].id = 3;\n        plots[2].owner = x1;\n        plots[2].price = 4000;\n        plots[2].forSale = true;\n        plots[2].name = 'Plot 3';\n        plots[2].location = 'Thimi';\n        plots[3].id = 4;\n        plots[3].owner= x1;\n        plots[3].price = 4000;\n        plots[3].forSale = false;\n        plots[3].name = 'Plot 4';\n        plots[3].location = 'Jorpati';\n        plots[4].id = 5;\n        plots[4].owner = x1;\n        plots[4].price = 4000;\n        plots[4].forSale = false;\n        plots[4].name = 'Plot 5';\n        plots[4].location = 'Lokanthali';\n        plots[5].id = 6;\n        plots[5].owner = x1;\n        plots[5].price = 4000;\n        plots[5].forSale = true;\n        plots[5].name = 'Plot 6';\n        plots[5].location = 'Jawalakhel';\n        plots[6].id = 7;\n        plots[6].owner = x2;\n        plots[6].price = 4000;\n        plots[6].forSale = true;\n        plots[6].name = 'Plot 7';\n        plots[6].location = 'Pulchowk';\n        plots[7].id = 8;\n        plots[7].owner = x2;\n        plots[7].price = 4000;\n        plots[7].forSale = true;\n        plots[7].name = 'Plot 8';\n        plots[7].location = 'Balaju';\n        plots[8].id = 9;\n        plots[8].owner = x2;\n        plots[8].price = 4000;\n        plots[8].forSale = true;\n        plots[8].name = 'Plot 9';\n        plots[8].location = 'Pepsicola';\n        plots[9].id = 10;\n        plots[9].owner = x2;\n        plots[9].price = 4000;\n        plots[9].forSale = true;\n        plots[9].name = 'Plot 10';\n        plots[9].location = 'Satdobato';\n        plots[10].id = 11;\n        plots[10].owner = x2;\n        plots[10].price = 4000;\n        plots[10].forSale = true;\n        plots[10].name = 'Plot 11';\n        plots[10].location = 'Balkhu';\n        plots[11].id = 12;\n        plots[11].owner = x2;\n        plots[11].price = 4000;\n        plots[11].forSale = true;\n        plots[11].name = 'Plot 12';\n        plots[11].location = 'Ekantakuna';\n        plotsForSaleCount = 12;\n\n    }\n\n\n    function putPlotUpForSale(uint index, uint price) public {\n        Plot storage plot = plots[index];\n\n        require(msg.sender == plot.owner && price > 0);\n\n        plot.forSale = true;\n        plot.price = price;\n        emit PlotAvailabilityChanged(index, price, true);\n        plotsForSaleCount ++;\n    }\n\n    function takeOffMarket(uint index) public {\n        Plot storage plot = plots[index];\n\n        require(msg.sender == plot.owner);\n\n        plot.forSale = false;\n        emit PlotAvailabilityChanged(index, plot.price, false);\n        plotsForSaleCount --;\n    }\n\n    function getPlots() public view returns(address[] memory, bool[] memory, uint[] memory) {\n        address[] memory addrs = new address[](12);\n        bool[] memory available = new bool[](12);\n        uint[] memory price = new uint[](12);\n\n        for (uint i = 0; i < 12; i++) {\n            Plot storage plot = plots[i];\n            addrs[i] = plot.owner;\n            price[i] = plot.price;\n            available[i] = plot.forSale;\n        }\n\n        return (addrs, available, price);\n    }\n\n    function onSaleName() public view returns(string[] memory,uint) {\n\n      uint j = 0;\n      string[] memory plotName = new string[](12);\n      for (uint i=0;i<12;i++) {\n        Plot storage plot = plots[i];\n        if (plot.forSale){\n          plotName[j] = plot.name;\n          j++;\n        }\n      }\n      return (plotName,j);\n    }\n\n    function onSaleLocation() public view returns(string[] memory,uint) {\n\n      uint j = 0;\n      string[] memory plotLocation = new string[](12);\n      for (uint i=0;i<12;i++) {\n        Plot storage plot = plots[i];\n        if (plot.forSale){\n          plotLocation[j] = plot.location;\n          j++;\n        }\n      }\n      return (plotLocation,j);\n    }\n\n    function onSalePrice() public view returns(uint[] memory,uint) {\n\n      uint j = 0;\n      uint[] memory plotPrice = new uint[](12);\n      for (uint i=0;i<12;i++) {\n        Plot storage plot = plots[i];\n        if (plot.forSale){\n          plotPrice[j] = plot.price;\n          j++;\n        }\n      }\n      return (plotPrice,j);\n    }\n\n    function myPlotsName() public view returns (string[] memory,uint){\n      uint j = 0;\n      string[] memory plotName = new string[](12);\n      for (uint i=0;i<12;i++) {\n        Plot storage plot = plots[i];\n        if (plot.owner == msg.sender){\n          plotName[j] = plot.name;\n          j++;\n        }\n      }\n      return (plotName,j);\n    }\n\n    function myPlotsLocation() public view returns (string[] memory,uint){\n      uint j = 0;\n      string[] memory plotLocation = new string[](12);\n      for (uint i=0;i<12;i++) {\n        Plot storage plot = plots[i];\n        if (plot.owner == msg.sender){\n          plotLocation[j] = plot.location;\n          j++;\n        }\n      }\n      return (plotLocation,j);\n    }\n\n    function myPlotsPrice() public view returns (uint[] memory,uint){\n      uint j = 0;\n      uint[] memory plotPrice = new uint[](12);\n      for (uint i=0;i<12;i++) {\n        Plot storage plot = plots[i];\n        if (plot.owner == msg.sender){\n          plotPrice[j] = plot.price;\n          j++;\n        }\n      }\n      return (plotPrice,j);\n    }\n\n    function myPlotsSaleCheck() public view returns (bool[] memory,uint){\n      uint j = 0;\n      bool[] memory plotSaleCheck = new bool[](12);\n      for (uint i=0;i<12;i++) {\n        Plot storage plot = plots[i];\n        if (plot.owner == msg.sender){\n          plotSaleCheck[j] = plot.forSale;\n          j++;\n        }\n      }\n      return (plotSaleCheck,j);\n    }\n\n\n    function idOfMyOffSalePlot() public view returns(uint[] memory, uint){\n      uint[] memory ids = new uint[](12);\n      uint j=0;\n      for (uint i=0;i<12;i++){\n        Plot storage plot = plots[i];\n        if (plot.owner == msg.sender && plot.forSale == false) {\n          ids[j] = plot.id;\n          j++;\n        }\n      }\n      return (ids,j);\n    }\n\n    function priceOfMyOffSalePlot() public view returns(uint[] memory, uint){\n      uint[] memory prices = new uint[](12);\n      uint j=0;\n      for (uint i=0;i<12;i++){\n        Plot storage plot = plots[i];\n        if (plot.owner == msg.sender && plot.forSale == false) {\n          prices[j] = plot.price;\n          j++;\n        }\n      }\n      return (prices,j);\n    }\n\n    function nameOfMyOffSalePlot() public view returns(string[] memory, uint){\n      string[] memory names=new string[](12);\n      uint j=0;\n      for (uint i=0;i<12;i++){\n        Plot storage plot = plots[i];\n        if (plot.owner == msg.sender && plot.forSale == false) {\n          names[j] = plot.name;\n          j++;\n        }\n      }\n      return (names,j);\n    }\n\n\n\n    function buyPlot(uint index) public payable {\n        Plot storage plot = plots[index];\n\n        require(msg.sender != plot.owner && plot.forSale && msg.value >= plot.price);\n\n\n        balances[plot.owner] += plot.price;\n        balances[msg.sender] -= plot.price;\n\n\n        plot.owner = msg.sender;\n        plot.forSale = false;\n        plotsForSaleCount --;\n        emit PlotOwnerChanged(index);\n    }\n\n    function idOfOnSalePlots() public view returns(uint[] memory,uint){\n      uint j=0;\n      uint[] memory plotId= new uint[](12);\n      for(uint i=0; i<12; i++){\n        Plot storage plot=plots[i];\n        if(plot.owner==msg.sender){\n          if(plot.forSale==true){\n            plotId[j]=plot.id;\n            j++;\n          }\n\n        }\n      }\n      return (plotId,j);\n    }\n\n    function onSaleCount() public view returns(uint[] memory) {\n\n      uint j = 0;\n      uint[] memory plotID = new uint[](12);\n      for (uint i=0;i<12;i++) {\n        Plot storage plot = plots[i];\n        if (plot.forSale){\n          plotID[j] = plot.id;\n          // plotName[j] = plot.name;\n          j++;\n        }\n      }\n      return (plotID);\n    }\n\n\n    function myPlotsCount() public view returns (uint[] memory){\n      uint j = 0;\n      uint[] memory plotID = new uint[](12);\n      for (uint i=0;i<12;i++) {\n        Plot storage plot = plots[i];\n        if (plot.owner==msg.sender){\n          plotID[j] = plot.id;\n          // plotName[j] = plot.name;\n          j++;\n        }\n      }\n      return (plotID);\n    }\n\n\n\n}\n",
  "sourcePath": "/Users/animesh/Documents/Ethereum-Practice/LandMarket/contracts/LandContract.sol",
  "compiler": {
    "name": "solc",
    "version": "0.5.0+commit.1d4f565a.Emscripten.clang"
  },
  "schemaVersion": "3.0.1",
  "updatedAt": "2019-07-20T18:59:12.489Z",
  "devdoc": {
    "methods": {}
  },
  "userdoc": {
    "methods": {}
  }
}