{
  "contractName": "LandContract",
  "abi": [
    {
      "constant": true,
      "inputs": [
        {
          "name": "",
          "type": "address"
        }
      ],
      "name": "balances",
      "outputs": [
        {
          "name": "",
          "type": "uint256"
        }
      ],
      "payable": false,
      "stateMutability": "view",
      "type": "function",
      "signature": "0x27e235e3"
    },
    {
      "constant": true,
      "inputs": [
        {
          "name": "",
          "type": "uint256"
        }
      ],
      "name": "plots",
      "outputs": [
        {
          "name": "owner",
          "type": "address"
        },
        {
          "name": "forSale",
          "type": "bool"
        },
        {
          "name": "price",
          "type": "uint256"
        },
        {
          "name": "name",
          "type": "string"
        },
        {
          "name": "location",
          "type": "string"
        }
      ],
      "payable": false,
      "stateMutability": "view",
      "type": "function",
      "signature": "0x61bf49ee"
    },
    {
      "constant": true,
      "inputs": [],
      "name": "plotsForSaleCount",
      "outputs": [
        {
          "name": "",
          "type": "uint256"
        }
      ],
      "payable": false,
      "stateMutability": "view",
      "type": "function",
      "signature": "0xda1f5280"
    },
    {
      "constant": true,
      "inputs": [],
      "name": "noOfPlots",
      "outputs": [
        {
          "name": "",
          "type": "uint256"
        }
      ],
      "payable": false,
      "stateMutability": "view",
      "type": "function",
      "signature": "0xe1022df4"
    },
    {
      "inputs": [],
      "payable": false,
      "stateMutability": "nonpayable",
      "type": "constructor",
      "signature": "constructor"
    },
    {
      "anonymous": false,
      "inputs": [
        {
          "indexed": false,
          "name": "index",
          "type": "uint256"
        }
      ],
      "name": "PlotOwnerChanged",
      "type": "event",
      "signature": "0xdfae03cf228ff8c45c20fc02b731bb43373364bd428f52e24885f609814ce497"
    },
    {
      "anonymous": false,
      "inputs": [
        {
          "indexed": false,
          "name": "index",
          "type": "uint256"
        },
        {
          "indexed": false,
          "name": "price",
          "type": "uint256"
        }
      ],
      "name": "PlotPriceChanged",
      "type": "event",
      "signature": "0xf43bf07521f1bba334011ee9e0ac9687fb59b66d6f9ed2e43467bf3197e91ef6"
    },
    {
      "anonymous": false,
      "inputs": [
        {
          "indexed": false,
          "name": "index",
          "type": "uint256"
        },
        {
          "indexed": false,
          "name": "price",
          "type": "uint256"
        },
        {
          "indexed": false,
          "name": "forSale",
          "type": "bool"
        }
      ],
      "name": "PlotAvailabilityChanged",
      "type": "event",
      "signature": "0xf8d85ddec75c998a4715c6f8d537607faa56efa42937f3ed1e18eb6ab0ab4af3"
    },
    {
      "constant": false,
      "inputs": [
        {
          "name": "index",
          "type": "uint256"
        },
        {
          "name": "price",
          "type": "uint256"
        }
      ],
      "name": "putPlotUpForSale",
      "outputs": [],
      "payable": false,
      "stateMutability": "nonpayable",
      "type": "function",
      "signature": "0xd81595f1"
    },
    {
      "constant": false,
      "inputs": [
        {
          "name": "index",
          "type": "uint256"
        }
      ],
      "name": "takeOffMarket",
      "outputs": [],
      "payable": false,
      "stateMutability": "nonpayable",
      "type": "function",
      "signature": "0xd1311446"
    },
    {
      "constant": true,
      "inputs": [],
      "name": "getPlots",
      "outputs": [
        {
          "name": "",
          "type": "address[]"
        },
        {
          "name": "",
          "type": "bool[]"
        },
        {
          "name": "",
          "type": "uint256[]"
        }
      ],
      "payable": false,
      "stateMutability": "view",
      "type": "function",
      "signature": "0xf9cf80a9"
    },
    {
      "constant": true,
      "inputs": [],
      "name": "onSaleName",
      "outputs": [
        {
          "name": "",
          "type": "string[]"
        }
      ],
      "payable": false,
      "stateMutability": "view",
      "type": "function",
      "signature": "0x0b6b7a1f"
    },
    {
      "constant": true,
      "inputs": [],
      "name": "onSaleLocation",
      "outputs": [
        {
          "name": "",
          "type": "string[]"
        }
      ],
      "payable": false,
      "stateMutability": "view",
      "type": "function",
      "signature": "0x3573009c"
    },
    {
      "constant": true,
      "inputs": [],
      "name": "onSalePrice",
      "outputs": [
        {
          "name": "",
          "type": "uint256[]"
        }
      ],
      "payable": false,
      "stateMutability": "view",
      "type": "function",
      "signature": "0x193d89af"
    },
    {
      "constant": true,
      "inputs": [],
      "name": "myPlotsName",
      "outputs": [
        {
          "name": "",
          "type": "string[]"
        }
      ],
      "payable": false,
      "stateMutability": "view",
      "type": "function",
      "signature": "0x683a5560"
    },
    {
      "constant": true,
      "inputs": [],
      "name": "myPlotsLocation",
      "outputs": [
        {
          "name": "",
          "type": "string[]"
        }
      ],
      "payable": false,
      "stateMutability": "view",
      "type": "function",
      "signature": "0x0bf39304"
    },
    {
      "constant": true,
      "inputs": [],
      "name": "myPlotsPrice",
      "outputs": [
        {
          "name": "",
          "type": "uint256[]"
        }
      ],
      "payable": false,
      "stateMutability": "view",
      "type": "function",
      "signature": "0xb7bf436c"
    },
    {
      "constant": true,
      "inputs": [],
      "name": "myPlotsSaleCheck",
      "outputs": [
        {
          "name": "",
          "type": "bool[]"
        }
      ],
      "payable": false,
      "stateMutability": "view",
      "type": "function",
      "signature": "0x2ada6cf5"
    },
    {
      "constant": false,
      "inputs": [
        {
          "name": "index",
          "type": "uint256"
        }
      ],
      "name": "buyPlot",
      "outputs": [],
      "payable": true,
      "stateMutability": "payable",
      "type": "function",
      "signature": "0x7b1949d2"
    }
  ],
  "bytecode": "0x6080604052600c6032553480156200001657600080fd5b50336000806101000a81548173ffffffffffffffffffffffffffffffffffffffff021916908373ffffffffffffffffffffffffffffffffffffffff160217905550600073a43a9c5cbfce8e324af63fc346a05171e8cfe7579050600073026513360c12159c8a3b4c6d9351082e2f5db0a990508160026000600c811015156200009b57fe5b6004020160000160006101000a81548173ffffffffffffffffffffffffffffffffffffffff021916908373ffffffffffffffffffffffffffffffffffffffff160217905550610fa060026000600c81101515620000f457fe5b6004020160010181905550600160026000600c811015156200011257fe5b6004020160000160146101000a81548160ff0219169083151502179055506040805190810160405280600681526020017f506c6f742031000000000000000000000000000000000000000000000000000081525060026000600c811015156200017757fe5b60040201600201908051906020019062000193929190620011c8565b506040805190810160405280600881526020017f42616e6573776f7200000000000000000000000000000000000000000000000081525060026000600c81101515620001db57fe5b600402016003019080519060200190620001f7929190620011c8565b508160026001600c811015156200020a57fe5b6004020160000160006101000a81548173ffffffffffffffffffffffffffffffffffffffff021916908373ffffffffffffffffffffffffffffffffffffffff160217905550610fa060026001600c811015156200026357fe5b6004020160010181905550600160026001600c811015156200028157fe5b6004020160000160146101000a81548160ff0219169083151502179055506040805190810160405280600681526020017f506c6f742032000000000000000000000000000000000000000000000000000081525060026001600c81101515620002e657fe5b60040201600201908051906020019062000302929190620011c8565b506040805190810160405280600881526020017f4b6f746573776f7200000000000000000000000000000000000000000000000081525060026001600c811015156200034a57fe5b60040201600301908051906020019062000366929190620011c8565b5081600280600c811015156200037857fe5b6004020160000160006101000a81548173ffffffffffffffffffffffffffffffffffffffff021916908373ffffffffffffffffffffffffffffffffffffffff160217905550610fa0600280600c81101515620003d057fe5b60040201600101819055506001600280600c81101515620003ed57fe5b6004020160000160146101000a81548160ff0219169083151502179055506040805190810160405280600681526020017f506c6f7420330000000000000000000000000000000000000000000000000000815250600280600c811015156200045157fe5b6004020160020190805190602001906200046d929190620011c8565b506040805190810160405280600581526020017f5468696d69000000000000000000000000000000000000000000000000000000815250600280600c81101515620004b457fe5b600402016003019080519060200190620004d0929190620011c8565b508160026003600c81101515620004e357fe5b6004020160000160006101000a81548173ffffffffffffffffffffffffffffffffffffffff021916908373ffffffffffffffffffffffffffffffffffffffff160217905550610fa060026003600c811015156200053c57fe5b6004020160010181905550600160026003600c811015156200055a57fe5b6004020160000160146101000a81548160ff0219169083151502179055506040805190810160405280600681526020017f506c6f742034000000000000000000000000000000000000000000000000000081525060026003600c81101515620005bf57fe5b600402016002019080519060200190620005db929190620011c8565b506040805190810160405280600781526020017f4a6f72706174690000000000000000000000000000000000000000000000000081525060026003600c811015156200062357fe5b6004020160030190805190602001906200063f929190620011c8565b508160026004600c811015156200065257fe5b6004020160000160006101000a81548173ffffffffffffffffffffffffffffffffffffffff021916908373ffffffffffffffffffffffffffffffffffffffff160217905550610fa060026004600c81101515620006ab57fe5b6004020160010181905550600160026004600c81101515620006c957fe5b6004020160000160146101000a81548160ff0219169083151502179055506040805190810160405280600681526020017f506c6f742035000000000000000000000000000000000000000000000000000081525060026004600c811015156200072e57fe5b6004020160020190805190602001906200074a929190620011c8565b506040805190810160405280600a81526020017f4c6f6b616e7468616c690000000000000000000000000000000000000000000081525060026004600c811015156200079257fe5b600402016003019080519060200190620007ae929190620011c8565b508160026005600c81101515620007c157fe5b6004020160000160006101000a81548173ffffffffffffffffffffffffffffffffffffffff021916908373ffffffffffffffffffffffffffffffffffffffff160217905550610fa060026005600c811015156200081a57fe5b6004020160010181905550600160026005600c811015156200083857fe5b6004020160000160146101000a81548160ff0219169083151502179055506040805190810160405280600681526020017f506c6f742036000000000000000000000000000000000000000000000000000081525060026005600c811015156200089d57fe5b600402016002019080519060200190620008b9929190620011c8565b506040805190810160405280600a81526020017f4a6177616c616b68656c0000000000000000000000000000000000000000000081525060026005600c811015156200090157fe5b6004020160030190805190602001906200091d929190620011c8565b508060026006600c811015156200093057fe5b6004020160000160006101000a81548173ffffffffffffffffffffffffffffffffffffffff021916908373ffffffffffffffffffffffffffffffffffffffff160217905550610fa060026006600c811015156200098957fe5b6004020160010181905550600160026006600c81101515620009a757fe5b6004020160000160146101000a81548160ff0219169083151502179055506040805190810160405280600681526020017f506c6f742037000000000000000000000000000000000000000000000000000081525060026006600c8110151562000a0c57fe5b60040201600201908051906020019062000a28929190620011c8565b506040805190810160405280600881526020017f50756c63686f776b00000000000000000000000000000000000000000000000081525060026006600c8110151562000a7057fe5b60040201600301908051906020019062000a8c929190620011c8565b508060026007600c8110151562000a9f57fe5b6004020160000160006101000a81548173ffffffffffffffffffffffffffffffffffffffff021916908373ffffffffffffffffffffffffffffffffffffffff160217905550610fa060026007600c8110151562000af857fe5b6004020160010181905550600160026007600c8110151562000b1657fe5b6004020160000160146101000a81548160ff0219169083151502179055506040805190810160405280600681526020017f506c6f742038000000000000000000000000000000000000000000000000000081525060026007600c8110151562000b7b57fe5b60040201600201908051906020019062000b97929190620011c8565b506040805190810160405280600681526020017f42616c616a75000000000000000000000000000000000000000000000000000081525060026007600c8110151562000bdf57fe5b60040201600301908051906020019062000bfb929190620011c8565b508060026008600c8110151562000c0e57fe5b6004020160000160006101000a81548173ffffffffffffffffffffffffffffffffffffffff021916908373ffffffffffffffffffffffffffffffffffffffff160217905550610fa060026008600c8110151562000c6757fe5b6004020160010181905550600160026008600c8110151562000c8557fe5b6004020160000160146101000a81548160ff0219169083151502179055506040805190810160405280600681526020017f506c6f742039000000000000000000000000000000000000000000000000000081525060026008600c8110151562000cea57fe5b60040201600201908051906020019062000d06929190620011c8565b506040805190810160405280600981526020017f5065707369636f6c61000000000000000000000000000000000000000000000081525060026008600c8110151562000d4e57fe5b60040201600301908051906020019062000d6a929190620011c8565b508060026009600c8110151562000d7d57fe5b6004020160000160006101000a81548173ffffffffffffffffffffffffffffffffffffffff021916908373ffffffffffffffffffffffffffffffffffffffff160217905550610fa060026009600c8110151562000dd657fe5b6004020160010181905550600160026009600c8110151562000df457fe5b6004020160000160146101000a81548160ff0219169083151502179055506040805190810160405280600781526020017f506c6f742031300000000000000000000000000000000000000000000000000081525060026009600c8110151562000e5957fe5b60040201600201908051906020019062000e75929190620011c8565b506040805190810160405280600981526020017f536174646f6261746f000000000000000000000000000000000000000000000081525060026009600c8110151562000ebd57fe5b60040201600301908051906020019062000ed9929190620011c8565b50806002600a600c8110151562000eec57fe5b6004020160000160006101000a81548173ffffffffffffffffffffffffffffffffffffffff021916908373ffffffffffffffffffffffffffffffffffffffff160217905550610fa06002600a600c8110151562000f4557fe5b600402016001018190555060016002600a600c8110151562000f6357fe5b6004020160000160146101000a81548160ff0219169083151502179055506040805190810160405280600781526020017f506c6f74203131000000000000000000000000000000000000000000000000008152506002600a600c8110151562000fc857fe5b60040201600201908051906020019062000fe4929190620011c8565b506040805190810160405280600681526020017f42616c6b687500000000000000000000000000000000000000000000000000008152506002600a600c811015156200102c57fe5b60040201600301908051906020019062001048929190620011c8565b50806002600b600c811015156200105b57fe5b6004020160000160006101000a81548173ffffffffffffffffffffffffffffffffffffffff021916908373ffffffffffffffffffffffffffffffffffffffff160217905550610fa06002600b600c81101515620010b457fe5b600402016001018190555060016002600b600c81101515620010d257fe5b6004020160000160146101000a81548160ff0219169083151502179055506040805190810160405280600781526020017f506c6f74203132000000000000000000000000000000000000000000000000008152506002600b600c811015156200113757fe5b60040201600201908051906020019062001153929190620011c8565b506040805190810160405280600a81526020017f456b616e74616b756e61000000000000000000000000000000000000000000008152506002600b600c811015156200119b57fe5b600402016003019080519060200190620011b7929190620011c8565b50600c603381905550505062001277565b828054600181600116156101000203166002900490600052602060002090601f016020900481019282601f106200120b57805160ff19168380011785556200123c565b828001600101855582156200123c579182015b828111156200123b5782518255916020019190600101906200121e565b5b5090506200124b91906200124f565b5090565b6200127491905b808211156200127057600081600090555060010162001256565b5090565b90565b6118f780620012876000396000f3fe6080604052600436106100db576000357c0100000000000000000000000000000000000000000000000000000000900463ffffffff1680630b6b7a1f146100e05780630bf393041461010b578063193d89af1461013657806327e235e3146101615780632ada6cf51461019e5780633573009c146101c957806361bf49ee146101f4578063683a5560146102355780637b1949d214610260578063b7bf436c1461027c578063d1311446146102a7578063d81595f1146102d0578063da1f5280146102f9578063e1022df414610324578063f9cf80a91461034f575b600080fd5b3480156100ec57600080fd5b506100f561037c565b60405161010291906116e0565b60405180910390f35b34801561011757600080fd5b506101206104d2565b60405161012d91906116e0565b60405180910390f35b34801561014257600080fd5b5061014b610669565b6040516101589190611702565b60405180910390f35b34801561016d57600080fd5b50610188600480360361018391908101906113a1565b610723565b6040516101959190611724565b60405180910390f35b3480156101aa57600080fd5b506101b361073b565b6040516101c091906116be565b60405180910390f35b3480156101d557600080fd5b506101de610849565b6040516101eb91906116e0565b60405180910390f35b34801561020057600080fd5b5061021b600480360361021691908101906113ca565b61099f565b60405161022c959493929190611611565b60405180910390f35b34801561024157600080fd5b5061024a610b37565b60405161025791906116e0565b60405180910390f35b61027a600480360361027591908101906113ca565b610cce565b005b34801561028857600080fd5b50610291610ee2565b60405161029e9190611702565b60405180910390f35b3480156102b357600080fd5b506102ce60048036036102c991908101906113ca565b610fdd565b005b3480156102dc57600080fd5b506102f760048036036102f291908101906113f3565b6110c6565b005b34801561030557600080fd5b5061030e6111c0565b60405161031b9190611724565b60405180910390f35b34801561033057600080fd5b506103396111c6565b6040516103469190611724565b60405180910390f35b34801561035b57600080fd5b506103646111cc565b60405161037393929190611672565b60405180910390f35b606060008090506060600c6040519080825280602002602001820160405280156103ba57816020015b60608152602001906001900390816103a55790505b50905060008090505b600c8110156104c9576000600282600c811015156103dd57fe5b6004020190508060000160149054906101000a900460ff16156104bb57806002018054600181600116156101000203166002900480601f0160208091040260200160405190810160405280929190818152602001828054600181600116156101000203166002900480156104925780601f1061046757610100808354040283529160200191610492565b820191906000526020600020905b81548152906001019060200180831161047557829003601f168201915b505050505083858151811015156104a557fe5b9060200190602002018190525083806001019450505b5080806001019150506103c3565b50809250505090565b606060008090506060600c60405190808252806020026020018201604052801561051057816020015b60608152602001906001900390816104fb5790505b50905060008090505b600c811015610660576000600282600c8110151561053357fe5b6004020190503373ffffffffffffffffffffffffffffffffffffffff168160000160009054906101000a900473ffffffffffffffffffffffffffffffffffffffff1673ffffffffffffffffffffffffffffffffffffffff16141561065257806003018054600181600116156101000203166002900480601f0160208091040260200160405190810160405280929190818152602001828054600181600116156101000203166002900480156106295780601f106105fe57610100808354040283529160200191610629565b820191906000526020600020905b81548152906001019060200180831161060c57829003601f168201915b5050505050838581518110151561063c57fe5b9060200190602002018190525083806001019450505b508080600101915050610519565b50809250505090565b606060008090506060600c6040519080825280602002602001820160405280156106a25781602001602082028038833980820191505090505b50905060008090505b600c81101561071a576000600282600c811015156106c557fe5b6004020190508060000160149054906101000a900460ff161561070c57806001015483858151811015156106f557fe5b906020019060200201818152505083806001019450505b5080806001019150506106ab565b50809250505090565b60016020528060005260406000206000915090505481565b606060008090506060600c6040519080825280602002602001820160405280156107745781602001602082028038833980820191505090505b50905060008090505b600c811015610840576000600282600c8110151561079757fe5b6004020190503373ffffffffffffffffffffffffffffffffffffffff168160000160009054906101000a900473ffffffffffffffffffffffffffffffffffffffff1673ffffffffffffffffffffffffffffffffffffffff161415610832578060000160149054906101000a900460ff16838581518110151561081557fe5b906020019060200201901515908115158152505083806001019450505b50808060010191505061077d565b50809250505090565b606060008090506060600c60405190808252806020026020018201604052801561088757816020015b60608152602001906001900390816108725790505b50905060008090505b600c811015610996576000600282600c811015156108aa57fe5b6004020190508060000160149054906101000a900460ff161561098857806003018054600181600116156101000203166002900480601f01602080910402602001604051908101604052809291908181526020018280546001816001161561010002031660029004801561095f5780601f106109345761010080835404028352916020019161095f565b820191906000526020600020905b81548152906001019060200180831161094257829003601f168201915b5050505050838581518110151561097257fe5b9060200190602002018190525083806001019450505b508080600101915050610890565b50809250505090565b600281600c811015156109ae57fe5b600402016000915090508060000160009054906101000a900473ffffffffffffffffffffffffffffffffffffffff16908060000160149054906101000a900460ff1690806001015490806002018054600181600116156101000203166002900480601f016020809104026020016040519081016040528092919081815260200182805460018160011615610100020316600290048015610a8f5780601f10610a6457610100808354040283529160200191610a8f565b820191906000526020600020905b815481529060010190602001808311610a7257829003601f168201915b505050505090806003018054600181600116156101000203166002900480601f016020809104026020016040519081016040528092919081815260200182805460018160011615610100020316600290048015610b2d5780601f10610b0257610100808354040283529160200191610b2d565b820191906000526020600020905b815481529060010190602001808311610b1057829003601f168201915b5050505050905085565b606060008090506060600c604051908082528060200260200182016040528015610b7557816020015b6060815260200190600190039081610b605790505b50905060008090505b600c811015610cc5576000600282600c81101515610b9857fe5b6004020190503373ffffffffffffffffffffffffffffffffffffffff168160000160009054906101000a900473ffffffffffffffffffffffffffffffffffffffff1673ffffffffffffffffffffffffffffffffffffffff161415610cb757806002018054600181600116156101000203166002900480601f016020809104026020016040519081016040528092919081815260200182805460018160011615610100020316600290048015610c8e5780601f10610c6357610100808354040283529160200191610c8e565b820191906000526020600020905b815481529060010190602001808311610c7157829003601f168201915b50505050508385815181101515610ca157fe5b9060200190602002018190525083806001019450505b508080600101915050610b7e565b50809250505090565b6000600282600c81101515610cdf57fe5b6004020190508060000160009054906101000a900473ffffffffffffffffffffffffffffffffffffffff1673ffffffffffffffffffffffffffffffffffffffff163373ffffffffffffffffffffffffffffffffffffffff1614158015610d5357508060000160149054906101000a900460ff165b8015610d63575080600101543410155b1515610d6e57600080fd5b8060010154600160008360000160009054906101000a900473ffffffffffffffffffffffffffffffffffffffff1673ffffffffffffffffffffffffffffffffffffffff1673ffffffffffffffffffffffffffffffffffffffff168152602001908152602001600020600082825401925050819055508060010154600160003373ffffffffffffffffffffffffffffffffffffffff1673ffffffffffffffffffffffffffffffffffffffff16815260200190815260200160002060008282540392505081905550338160000160006101000a81548173ffffffffffffffffffffffffffffffffffffffff021916908373ffffffffffffffffffffffffffffffffffffffff16021790555060008160000160146101000a81548160ff021916908315150217905550603360008154809291906001900391905055507fdfae03cf228ff8c45c20fc02b731bb43373364bd428f52e24885f609814ce49782604051610ed69190611724565b60405180910390a15050565b606060008090506060600c604051908082528060200260200182016040528015610f1b5781602001602082028038833980820191505090505b50905060008090505b600c811015610fd4576000600282600c81101515610f3e57fe5b6004020190503373ffffffffffffffffffffffffffffffffffffffff168160000160009054906101000a900473ffffffffffffffffffffffffffffffffffffffff1673ffffffffffffffffffffffffffffffffffffffff161415610fc65780600101548385815181101515610faf57fe5b906020019060200201818152505083806001019450505b508080600101915050610f24565b50809250505090565b6000600282600c81101515610fee57fe5b6004020190508060000160009054906101000a900473ffffffffffffffffffffffffffffffffffffffff1673ffffffffffffffffffffffffffffffffffffffff163373ffffffffffffffffffffffffffffffffffffffff1614151561105257600080fd5b60008160000160146101000a81548160ff0219169083151502179055507ff8d85ddec75c998a4715c6f8d537607faa56efa42937f3ed1e18eb6ab0ab4af382826001015460006040516110a79392919061173f565b60405180910390a1603360008154809291906001900391905055505050565b6000600283600c811015156110d757fe5b6004020190508060000160009054906101000a900473ffffffffffffffffffffffffffffffffffffffff1673ffffffffffffffffffffffffffffffffffffffff163373ffffffffffffffffffffffffffffffffffffffff1614801561113c5750600082115b151561114757600080fd5b60018160000160146101000a81548160ff0219169083151502179055508181600101819055507ff8d85ddec75c998a4715c6f8d537607faa56efa42937f3ed1e18eb6ab0ab4af3838360016040516111a19392919061173f565b60405180910390a1603360008154809291906001019190505550505050565b60335481565b60325481565b606080606080600c6040519080825280602002602001820160405280156112025781602001602082028038833980820191505090505b5090506060600c6040519080825280602002602001820160405280156112375781602001602082028038833980820191505090505b5090506060600c60405190808252806020026020018201604052801561126c5781602001602082028038833980820191505090505b50905060008090505b600c811015611367576000600282600c8110151561128f57fe5b6004020190508060000160009054906101000a900473ffffffffffffffffffffffffffffffffffffffff1685838151811015156112c857fe5b9060200190602002019073ffffffffffffffffffffffffffffffffffffffff16908173ffffffffffffffffffffffffffffffffffffffff16815250508060010154838381518110151561131757fe5b90602001906020020181815250508060000160149054906101000a900460ff16848381518110151561134557fe5b9060200190602002019015159081151581525050508080600101915050611275565b50828282955095509550505050909192565b6000611385823561185d565b905092915050565b6000611399823561186f565b905092915050565b6000602082840312156113b357600080fd5b60006113c184828501611379565b91505092915050565b6000602082840312156113dc57600080fd5b60006113ea8482850161138d565b91505092915050565b6000806040838503121561140657600080fd5b60006114148582860161138d565b92505060206114258582860161138d565b9150509250929050565b61143881611815565b82525050565b6000611449826117aa565b80845260208401935061145b83611776565b60005b8281101561148d5761147186835161142f565b61147a826117e1565b915060208601955060018101905061145e565b50849250505092915050565b60006114a4826117b5565b8084526020840193506114b683611783565b60005b828110156114e8576114cc8683516115bd565b6114d5826117ee565b91506020860195506001810190506114b9565b50849250505092915050565b60006114ff826117c0565b8084526020840193508360208202850161151885611790565b60005b848110156115515783830388526115338383516115cc565b925061153e826117fb565b915060208801975060018101905061151b565b508196508694505050505092915050565b600061156d826117cb565b80845260208401935061157f8361179d565b60005b828110156115b157611595868351611602565b61159e82611808565b9150602086019550600181019050611582565b50849250505092915050565b6115c681611827565b82525050565b60006115d7826117d6565b8084526115eb816020860160208601611879565b6115f4816118ac565b602085010191505092915050565b61160b81611853565b82525050565b600060a082019050611626600083018861142f565b61163360208301876115bd565b6116406040830186611602565b818103606083015261165281856115cc565b9050818103608083015261166681846115cc565b90509695505050505050565b6000606082019050818103600083015261168c818661143e565b905081810360208301526116a08185611499565b905081810360408301526116b48184611562565b9050949350505050565b600060208201905081810360008301526116d88184611499565b905092915050565b600060208201905081810360008301526116fa81846114f4565b905092915050565b6000602082019050818103600083015261171c8184611562565b905092915050565b60006020820190506117396000830184611602565b92915050565b60006060820190506117546000830186611602565b6117616020830185611602565b61176e60408301846115bd565b949350505050565b6000602082019050919050565b6000602082019050919050565b6000602082019050919050565b6000602082019050919050565b600081519050919050565b600081519050919050565b600081519050919050565b600081519050919050565b600081519050919050565b6000602082019050919050565b6000602082019050919050565b6000602082019050919050565b6000602082019050919050565b600061182082611833565b9050919050565b60008115159050919050565b600073ffffffffffffffffffffffffffffffffffffffff82169050919050565b6000819050919050565b600061186882611833565b9050919050565b6000819050919050565b60005b8381101561189757808201518184015260208101905061187c565b838111156118a6576000848401525b50505050565b6000601f19601f830116905091905056fea265627a7a72305820288c723e237208637dc4354d905b615080c2fbca4de97040df15caa522a3d77c6c6578706572696d656e74616cf50037",
  "source": "pragma experimental ABIEncoderV2;\npragma solidity ^0.5.0;\n\n\ncontract LandContract {\n    address owner;\n    mapping (address => uint) public balances;\n\n    struct Plot {\n        address owner;\n        bool forSale;\n        uint price;\n        string name;\n        string location;\n    }\n\n    Plot[12] public plots;\n\n    uint public noOfPlots = 12;\n    uint public plotsForSaleCount;\n\n    event PlotOwnerChanged(\n        uint index\n    );\n\n    event PlotPriceChanged(\n        uint index,\n        uint price\n    );\n\n    event PlotAvailabilityChanged(\n        uint index,\n        uint price,\n        bool forSale\n    );\n\n    constructor() public {\n        owner = msg.sender;\n        address x1 = 0xa43A9c5cbFcE8E324AF63fc346A05171e8cfE757;\n        address x2 = 0x026513360c12159C8a3b4c6D9351082E2f5DB0A9;\n        plots[0].owner= x1;\n        plots[0].price = 4000;\n        plots[0].forSale = true;\n        plots[0].name = 'Plot 1';\n        plots[0].location = 'Baneswor';\n        plots[1].owner = x1;\n        plots[1].price = 4000;\n        plots[1].forSale = true;\n        plots[1].name = 'Plot 2';\n        plots[1].location = 'Koteswor';\n        plots[2].owner = x1;\n        plots[2].price = 4000;\n        plots[2].forSale = true;\n        plots[2].name = 'Plot 3';\n        plots[2].location = 'Thimi';\n        plots[3].owner= x1;\n        plots[3].price = 4000;\n        plots[3].forSale = true;\n        plots[3].name = 'Plot 4';\n        plots[3].location = 'Jorpati';\n        plots[4].owner = x1;\n        plots[4].price = 4000;\n        plots[4].forSale = true;\n        plots[4].name = 'Plot 5';\n        plots[4].location = 'Lokanthali';\n        plots[5].owner = x1;\n        plots[5].price = 4000;\n        plots[5].forSale = true;\n        plots[5].name = 'Plot 6';\n        plots[5].location = 'Jawalakhel';\n        plots[6].owner = x2;\n        plots[6].price = 4000;\n        plots[6].forSale = true;\n        plots[6].name = 'Plot 7';\n        plots[6].location = 'Pulchowk';\n        plots[7].owner = x2;\n        plots[7].price = 4000;\n        plots[7].forSale = true;\n        plots[7].name = 'Plot 8';\n        plots[7].location = 'Balaju';\n        plots[8].owner = x2;\n        plots[8].price = 4000;\n        plots[8].forSale = true;\n        plots[8].name = 'Plot 9';\n        plots[8].location = 'Pepsicola';\n        plots[9].owner = x2;\n        plots[9].price = 4000;\n        plots[9].forSale = true;\n        plots[9].name = 'Plot 10';\n        plots[9].location = 'Satdobato';\n        plots[10].owner = x2;\n        plots[10].price = 4000;\n        plots[10].forSale = true;\n        plots[10].name = 'Plot 11';\n        plots[10].location = 'Balkhu';\n        plots[11].owner = x2;\n        plots[11].price = 4000;\n        plots[11].forSale = true;\n        plots[11].name = 'Plot 12';\n        plots[11].location = 'Ekantakuna';\n        plotsForSaleCount = 12;\n\n    }\n\n\n    function putPlotUpForSale(uint index, uint price) public {\n        Plot storage plot = plots[index];\n\n        require(msg.sender == plot.owner && price > 0);\n\n        plot.forSale = true;\n        plot.price = price;\n        emit PlotAvailabilityChanged(index, price, true);\n        plotsForSaleCount ++;\n    }\n\n    function takeOffMarket(uint index) public {\n        Plot storage plot = plots[index];\n\n        require(msg.sender == plot.owner);\n\n        plot.forSale = false;\n        emit PlotAvailabilityChanged(index, plot.price, false);\n        plotsForSaleCount --;\n    }\n\n    function getPlots() public view returns(address[] memory, bool[] memory, uint[] memory) {\n        address[] memory addrs = new address[](12);\n        bool[] memory available = new bool[](12);\n        uint[] memory price = new uint[](12);\n\n        for (uint i = 0; i < 12; i++) {\n            Plot storage plot = plots[i];\n            addrs[i] = plot.owner;\n            price[i] = plot.price;\n            available[i] = plot.forSale;\n        }\n\n        return (addrs, available, price);\n    }\n\n    function onSaleName() public view returns(string[] memory) {\n\n      uint j = 0;\n      string[] memory plotName = new string[](12);\n      for (uint i=0;i<12;i++) {\n        Plot storage plot = plots[i];\n        if (plot.forSale){\n          plotName[j] = plot.name;\n          j++;\n        }\n      }\n      return (plotName);\n    }\n\n    function onSaleLocation() public view returns(string[] memory) {\n\n      uint j = 0;\n      string[] memory plotLocation = new string[](12);\n      for (uint i=0;i<12;i++) {\n        Plot storage plot = plots[i];\n        if (plot.forSale){\n          plotLocation[j] = plot.location;\n          j++;\n        }\n      }\n      return (plotLocation);\n    }\n\n    function onSalePrice() public view returns(uint[] memory) {\n\n      uint j = 0;\n      uint[] memory plotPrice = new uint[](12);\n      for (uint i=0;i<12;i++) {\n        Plot storage plot = plots[i];\n        if (plot.forSale){\n          plotPrice[j] = plot.price;\n          j++;\n        }\n      }\n      return (plotPrice);\n    }\n\n    function myPlotsName() public view returns (string[] memory){\n      uint j = 0;\n      string[] memory plotName = new string[](12);\n      for (uint i=0;i<12;i++) {\n        Plot storage plot = plots[i];\n        if (plot.owner == msg.sender){\n          plotName[j] = plot.name;\n          j++;\n        }\n      }\n      return (plotName);\n    }\n\n    function myPlotsLocation() public view returns (string[] memory){\n      uint j = 0;\n      string[] memory plotLocation = new string[](12);\n      for (uint i=0;i<12;i++) {\n        Plot storage plot = plots[i];\n        if (plot.owner == msg.sender){\n          plotLocation[j] = plot.location;\n          j++;\n        }\n      }\n      return (plotLocation);\n    }\n\n    function myPlotsPrice() public view returns (uint[] memory){\n      uint j = 0;\n      uint[] memory plotPrice = new uint[](12);\n      for (uint i=0;i<12;i++) {\n        Plot storage plot = plots[i];\n        if (plot.owner == msg.sender){\n          plotPrice[j] = plot.price;\n          j++;\n        }\n      }\n      return (plotPrice);\n    }\n\n    function myPlotsSaleCheck() public view returns (bool[] memory){\n      uint j = 0;\n      bool[] memory plotSaleCheck = new bool[](12);\n      for (uint i=0;i<12;i++) {\n        Plot storage plot = plots[i];\n        if (plot.owner == msg.sender){\n          plotSaleCheck[j] = plot.forSale;\n          j++;\n        }\n      }\n      return (plotSaleCheck);\n    }\n\n\n\n\n\n\n    function buyPlot(uint index) public payable {\n        Plot storage plot = plots[index];\n\n        require(msg.sender != plot.owner && plot.forSale && msg.value >= plot.price);\n\n\n        balances[plot.owner] += plot.price;\n        balances[msg.sender] -= plot.price;\n\n\n        plot.owner = msg.sender;\n        plot.forSale = false;\n        plotsForSaleCount --;\n        emit PlotOwnerChanged(index);\n    }\n\n\n}\n",
  "sourcePath": "/Users/animesh/Documents/Ethereum-Practice/LandMarket/contracts/LandContract.sol",
  "compiler": {
    "name": "solc",
    "version": "0.5.0+commit.1d4f565a.Emscripten.clang"
  },
  "schemaVersion": "3.0.1",
  "updatedAt": "2019-07-20T12:28:04.739Z",
  "devdoc": {
    "methods": {}
  },
  "userdoc": {
    "methods": {}
  }
}